:020000040800F2
:1000000000200020B9000008C9030008DD03000833
:1000100000000000000000000000000000000000E0
:10002000000000000000000000000000C9030008FC
:100030000000000000000000C9030008C903000818
:10004000C9030008C9030008C9030008C903000860
:10005000C9030008C9030008C9030008C903000850
:1000600000000000C9030008C9030008C903000814
:10007000C9030008C903000800000000C903000804
:1000800000000000C903000800000000000000009C
:10009000C903000800000000C9030008C9030008E4
:1000A000C9030008C9030008C90300085506000871
:1000B000C9030008C903000800F002F900F0C4F801
:1000C000E1235B02180000F01DFA62B6C04600F0A2
:1000D0005DF8024B180000F085FBFEE79065000814
:1000E00080B500AF0A4B0B4A5A60094B00229A6058
:1000F000074B05221A60C046054B1A6880235B0235
:100100001340F9D0024B00221A60C046BD4680BDA4
:1001100010E000E0FF7C000080B582B000AF7860A6
:1001200001E0FFF7DDFF7B685A1E7A60002BF8D1F3
:10013000C046C046BD4602B080BD80B500AF104B82
:10014000DA6A0F4B01210A43DA62A023DB051B6840
:100150000C4A1A40A023DB05802149020A431A6099
:10016000074BDA6A064B02210A43DA62064B1A6829
:10017000054B0C210A431A60C046BD4680BDC046EF
:1001800000100240FFFFFCFF0004005080B582B069
:1001900000AFFA235B001800FFF7BEFF234B1800E7
:1001A00002F0E4FC224B180002F046FDFFF7C5FF09
:1001B00000F0F8FB80239B00180000F043FC0300D4
:1001C0007B60786801F08EFC1A4A1B4B01F0C6F97F
:1001D00002000B00100019000022184B00F0A2FED4
:1001E00002000B001000190001F0F4FC031C3B603E
:1001F000386801F0A7FC02000B007968104802F093
:10020000B5FC104B1B689B68180002F03FFBA02355
:10021000DB055A69A023DB05802149004A405A6169
:10022000FA235B001800FFF777FFC3E73865000883
:10023000446500086666666666660A400000B0406F
:10024000786500081000002080B582B000AF164B22
:100250007B60164B3B6007E07A68131D7B603B6850
:10026000191D396012681A603A68114B9A42F3D32B
:1002700004E03B681A1D3A6000221A603A680D4B90
:100280009A42F6D30C4B3B6004E03B681A1D3A607F
:100290001B6898473A68094B9A42F6D3C046C04655
:1002A000BD4602B080BDC046E869000800000020DD
:1002B000CC010020CC030020E8690008E8690008B0
:1002C00080B500AF3B4B1A683A4B01210A431A60D4
:1002D000C046384B1B6804221340FAD0354B01222C
:1002E000DA60C046334BDB680C221340042BF9D193
:1002F000314B1A68304B02210A431A602E4B1A68A0
:100300002D4B01210A431A602A4B9A6B294B8021FD
:1003100049050A439A63294B802212011A60C0469C
:10032000264B5B6810221340FAD1224BDA68214B2E
:1003300023490A40DA601F4BDA681E4B8821C90343
:100340000A43DA601B4A1B4BD268DA60194A194B20
:10035000D268DA60174A174BD268DA60154B1A6810
:10036000144B18490A401A60124B1A68114B80212D
:1003700049040A431A60C0460E4B1A6880239B0446
:100380001340F9D00B4BDA680A4B03218A43DA6039
:10039000084BDA68074B03210A43DA60C046054B75
:1003A000DB680C2213400C2BF9D1C046C046BD4679
:1003B00080BDC04600100240002002400070004096
:1003C000FFFF02FFFFFFFFFE80B500AF024B1800EA
:1003D00000F008FAFEE7C046B865000880B500AF37
:1003E000024B180000F0FEF9FEE7C046E865000881
:1003F00090B585B000AF78603960184B1B68002B52
:1004000002D101235B4224E00023FB600AE0FB6889
:100410005A1CFA603A68D418114B180000F0ADF974
:10042000030023707B68013B1A00FB68934205D2EE
:100430000B4B180000F0CCF9031EE8D1FB68002B31
:1004400006D03A68FB68D31800221A70FB6800E0F7
:1004500000231800BD4605B090BDC04664020020D0
:10046000CC01002080B584B000AF78603960224BA9
:100470001B68002B02D101235B4238E07B683F2BD5
:100480000BDCC0461D4B180000F0A2F9030040220F
:10049000D21A7B689A42F5D302E002235B4226E03F
:1004A0000023FB600BE03A68FB68D3181A78134B03
:1004B0001100180000F030F9FB680133FB607B6825
:1004C000FA689A42EFD30E4B1B68082213400DD1F5
:1004D0000B4B1A680A4B08210A431A60074B180095
:1004E00000F04BF903001A00054B9A620023180034
:1004F000BD4604B080BDC046640200201802002042
:100500000038014080B584B000AF786072B6C04654
:10051000454B00229A64444B9A6C434B5A64424BBD
:100520005A6C414B1A64414B00229A643F4B9A6CBF
:100530003E4B5A643D4B5A6C3C4B1A643C4B012277
:100540001A603C4B00221A603B4BDA6A3A4B01219D
:100550000A43DA62394BFB607968F86800F0F6FB11
:100560000300FB60A023DB059A68A023DB05802144
:10057000C9020A439A60A023DB055A68A023DB0561
:100580002F490A405A60A023DB051B682D4A1A40F8
:10059000A023DB05802109030A431A60A023DB05A1
:1005A0005A6AA023DB0540210A435A62A023DB05D7
:1005B0001B68254A1A40A023DB05802189030A43D2
:1005C0001A60A023DB055A6AA023DB058021C9003D
:1005D0000A435A62184B5A6B174B8021C9010A43D0
:1005E0005A631A4B1A68194B6C210A431A60174B4D
:1005F00000225A60154B00229A60144BFA68DA60A8
:10060000124B1A68114B01210A431A60104B1A68E9
:100610000F4B802109050A431A6062B6C046C046E6
:10062000BD4604B080BDC046CC01002018020020A9
:100630006402002068020020001002400048E80127
:10064000FFFDFFFFFFFFF3FFFFFFCFFF003801407B
:1006500000E100E080B500AF084BDB698022134069
:1006600001D000F025F8054BDB692022134001D0B2
:1006700000F006F8C046BD4680BDC04600380140C7
:1006800080B500AF074B5B6ADAB2074B1100180068
:1006900000F042F8031E02D0044B01221A60C0464B
:1006A000BD4680BD00380140CC010020680200201A
:1006B00080B500AF164B180000F08AF8031E08D072
:1006C000134B180000F059F803001A00114B9A62FE
:1006D0001BE0104B1A680F4B08218A431A600D4B20
:1006E000DB694022134005D00A4B1A6A094B4021AE
:1006F0000A431A62074BDB698022134005D0054B81
:100700009A69044B10210A439A61C046BD4680BDD8
:10071000180200200038014080B582B000AF786038
:100720000A00FB1C1A707B681A6C7B685B6C9A422F
:1007300005D17B689B6C002B01D0012319E072B6B8
:10074000C0467B681B6C591C7A6811647A68F91C76
:100750000978D1547B689B6C5A1C7B689A647B68CF
:100760001B6C402B02D17B6800221A6462B6C04623
:1007700000231800BD4602B080BD80B584B000AF34
:1007800078607B689B6C002B01D100231CE072B663
:10079000C0467B685B6C591C7A6851640F22BA189A
:1007A0007968CB5C13707B685B6C402B02D17B68F3
:1007B00000225A647B689B6C5A1E7B689A6462B6FE
:1007C000C0460F23FB181B781800BD4604B080BD3F
:1007D00080B582B000AF78607B689B6C1800BD4626
:1007E00002B080BD80B582B000AF78600B4B1B6853
:1007F000002B09D101235B420BE07B685A1C7A6015
:1008000019000120FFF72EFE7B681B78002BF4D126
:1008100000231800BD4602B080BDC046640200201F
:1008200080B582B000AF0200FB1D1A70FB1D1900DD
:100830000120FFF717FEC046BD4602B080BD80B55F
:1008400000AF044B1800FFF798FF03001800BD46E7
:1008500080BDC046CC010020B0B584B000AF786048
:1008600039601E4B1B68002B02D101235B4231E033
:100870000023FB600B23FB1800221A7017E0C04610
:10088000174B1800FFF7A4FF031EF9D00B257C19A6
:10089000134B1800FFF771FF03002370FB685A1C0D
:1008A000FA601A007B689B187A1912781A703B68F4
:1008B000013BFA689A4204DA0B23FB181B780D2BD4
:1008C000DDD1FB68002B04DDFB687A68D3180022B9
:1008D0001A70FB681800BD4604B0B0BD6402002069
:1008E000CC01002090B583B000AFFC1DFFF7A7FF3F
:1008F00003002370FB1D1B781800FFF791FFFB1D01
:100900001B781800BD4603B090BDB0B584B000AFF1
:1009100078603960214B1B68002B02D101235B42B8
:1009200037E00023FB600B23FB1800221A701DE048
:10093000C0461B4B1800FFF74BFF031EF9D00B25D9
:100940007C19174B1800FFF718FF030023702C00C9
:100950003B191B781800FFF763FFFB685A1CFA600D
:100960001A007B689B183A1912781A703B68013B91
:10097000FA689A4204DA0B23FB181B780D2BD7D1A7
:10098000FB68002B04DDFB687A68D31800221A701C
:10099000FB681800BD4604B0B0BDC046640200202C
:1009A000CC01002080B500AF244B5A6B234B802133
:1009B00089000A435A63224B1A69214BC021090658
:1009C0000A431A611E4B1A681D4B01210A431A6023
:1009D0001B4B9A681A4B01210A439A60184BDA683C
:1009E00080231B02134005D1C046154B1B68012212
:1009F0001340FAD0124B9B680122134005D0104BD4
:100A00009A680F4B02210A439A600D4B9A680C4B6F
:100A1000802109060A439A60C046094B1A68802360
:100A20001B011340F9D0064B1A68054B80210901C0
:100A30000A431A60C046BD4680BDC0460010024051
:100A40000024014080B582B000AF7860164BDA68B0
:100A5000154B802109020A43DA60134B7A689A62C7
:100A6000114B5A69104B07210A435A617A68802357
:100A70009B029A4206D10D4B1A680C4B8021C90388
:100A80000A431A60084B9A68074B04210A439A608C
:100A9000C046054B1B6804221340FAD0024B1B6C66
:100AA0001800BD4602B080BD002401400827014067
:100AB00080B582B000AF7860FEE780B582B000AF4D
:100AC000786001235B421800BD4602B080BD80B54E
:100AD00084B000AFF860B9607A60044B0C221A60F1
:100AE00001235B421800BD4604B080BD780200209F
:100AF00080B500AF034B0B221A6001235B42180044
:100B0000BD4680BD7802002080B582B000AF78601D
:100B100039603B68802292015A6000231800BD466C
:100B200002B080BD80B500AF01231800BD4680BD76
:100B300080B582B000AF78603960044B16221A602D
:100B400001235B421800BD4602B080BD7802002040
:100B500080B582B000AF78603960044B1F221A6004
:100B600001235B421800BD4602B080BD7802002020
:100B700080B584B000AFF860B9607A6000231800D7
:100B8000BD4604B080BD80B582B000AF78603960EA
:100B90003B68802292015A6000231800BD4602B0D3
:100BA00080BD80B582B000AF786001235B42180041
:100BB000BD4602B080BD80B582B000AF7860044B06
:100BC00002221A6001235B421800BD4602B080BDBC
:100BD0007802002080B582B000AF7860044B0A2212
:100BE0001A6001235B421800BD4602B080BDC046BA
:100BF0007802002080B582B000AF78607B68022B5D
:100C000001D8012303E0044B09221A6000231800D5
:100C1000BD4602B080BDC0467802002080B586B0D7
:100C200000AF7860124B7B61124B3B61124B1B682B
:100C3000002B02D1104B7A691A600F4B1B68FB60C6
:100C40000D4B1A687B68D3183A699A4205D20B4B50
:100C50000C221A6001235B4206E0074B1A687B688E
:100C6000D218054B1A60FB681800BD4606B080BD5F
:100C7000CC03002000100020740200207802002025
:100C800080B588B000AFF860B9607A600023BB61BE
:100C9000FB68002B22D10023FB611AE0FFF7CFFD98
:100CA00003001A0017217B181A70BB685A1CBA601F
:100CB0007A181278D2B21A70BB690133BB617B1803
:100CC0001B78DBB20A2B01D1BB690EE0FB69013353
:100CD000FB61FA697B689A42E0DB05E0054B09227B
:100CE0001A6001235B4200E0BB691800BD4608B0F2
:100CF00080BDC0467802002080B586B000AFF860A5
:100D0000B9607A60FB68013B012B11D800237B613D
:100D100009E0BB685A1CBA601B781800FFF780FD19
:100D20007B6901337B617A697B689A42F1DB05E07C
:100D3000054B09221A6001235B4200E07B68180022
:100D4000BD4606B080BDC0467802002003460B4376
:100D50007FD4002243088B4274D303098B425FD3B4
:100D6000030A8B4244D3030B8B4228D3030C8B42E0
:100D70000DD3FF22090212BA030C8B4202D31212C6
:100D8000090265D0030B8B4219D300E0090AC30B9B
:100D90008B4201D3CB03C01A5241830B8B4201D348
:100DA0008B03C01A5241430B8B4201D34B03C01A31
:100DB0005241030B8B4201D30B03C01A5241C30AA9
:100DC0008B4201D3CB02C01A5241830A8B4201D31A
:100DD0008B02C01A5241430A8B4201D34B02C01A04
:100DE0005241030A8B4201D30B02C01A5241CDD2A9
:100DF000C3098B4201D3CB01C01A524183098B42F4
:100E000001D38B01C01A524143098B4201D34B01DC
:100E1000C01A524103098B4201D30B01C01A52413F
:100E2000C3088B4201D3CB00C01A524183088B42C6
:100E300001D38B00C01A524143088B4201D34B00AF
:100E4000C01A5241411A00D2014652411046704721
:100E50005DE0CA0F00D04942031000D34042534026
:100E600000229C4603098B422DD3030A8B4212D3E6
:100E7000FC22890112BA030A8B420CD38901921118
:100E80008B4208D3890192118B4204D389013AD055
:100E9000921100E08909C3098B4201D3CB01C01A2A
:100EA000524183098B4201D38B01C01A524143093D
:100EB0008B4201D34B01C01A524103098B4201D32B
:100EC0000B01C01A5241C3088B4201D3CB00C01A98
:100ED000524183088B4201D38B00C01A5241D9D2B0
:100EE00043088B4201D34B00C01A5241411A00D231
:100EF0000146634652415B10104601D34042002B2D
:100F000000D54942704763465B1000D3404201B5AB
:100F1000002000F005F802BD0029F8D016E7704760
:100F20007047C046F0B5DE46454657464E46E0B5EA
:100F300087B0009201930B031B0B9B46CA0F4B001B
:100F4000040080465B0D029200D16AE1D44A9342CC
:100F500000D18CE15946420FC9000A43802109049F
:100F60001143C2009046CF4A894692469A440023D4
:100F700000240393009E019F3B031B0B9B467B00B9
:100F800030005B0DFD0F002B00D128E1C44A9342D5
:100F900000D177E15946720FC9000A438021090444
:100FA00011438B46BF49F2008C4651466344CB1A2D
:100FB0009A460023029E6E400F2C27D8BA49A400FF
:100FC00009598F46CB464246029E039B022B16D000
:100FD000032B00D1A9E2012B00D0DFE00022002387
:100FE000002490461B052343F6073343404619006F
:100FF00007B0F0BCBB46B246A946A046F0BD0022F1
:1010000000249046A64BEDE72E00DFE7CB4500D24B
:10101000D8E100D1D3E101235B429C4644464846D7
:101020000027E2445B46150E1B021D43190C2B04DE
:10103000120200951D0C91460291039500F0DCFE12
:1010400002006A430B04210C804619438A4209D9E5
:10105000009D0123AC465B4261449C46E0448D42C6
:1010600000D8FFE1881A029900F0C6FE039A240412
:1010700042430904240C03000C43A24206D9009900
:10108000013B8C466444A14200D8E5E1A01A4246E7
:1010900012041A4393464B4659461B0C1D000493F9
:1010A0000B0449460904090C0C001B0C5C43120C90
:1010B0006B43884651436A43250CAC465B18634436
:1010C000994203D9802149028C466244190C2404B8
:1010D0001B04240C8A181C19904202D316D1A74273
:1010E00014D25B46009D013B4F4405934F459B4105
:1010F000AC465B426344C018854200D3A5E18242FE
:1011000000D9F9E100D1F4E1059B9B463C1BA742C5
:10111000BF41009D801A7F42C01B854200D1D4E1AF
:10112000029900F069FE039A0B044243210C070068
:1011300019438A4200D97CE1881A029900F05CFECA
:10114000039A240442430904240C03000C43A242E2
:1011500000D961E14146A41A3A041A43049D1304DC
:101160001B0C594347466B439C46100C47430B0CE2
:10117000BC44634468439F4203D980256D02AC465A
:1011800060441F0C09041B04090C3F185B18BC4287
:1011900000D206E100D101E101231A43434B53443D
:1011A000002B00DCB2E0510700D09BE15946C90199
:1011B00006D559463E4B194080238B46DB005344ED
:1011C0003C498B4200DD1AE75946D20849071143D2
:1011D0005A465B0554028846240B5B0D02E75A46CB
:1011E000009B1A4300D182E05B46002B00D104E152
:1011F000584600F005FE020003000B3A1D27009E32
:10120000BA1A19005846D6400839884032000243BD
:101210009346009A8A40284953448A469A440023B8
:10122000C8E65B46034399465AD05B46002B00D183
:10123000D1E0584600F0E4FD0B235B429C460200DF
:10124000844466461D239B1B260011005846DE4041
:101250000839884033000343994623008B40984661
:10126000164B00249B1A9A460023039382E65A46A3
:10127000024391462ED100229A460223904608242A
:10128000039377E65A46009B1A431BD102231C4363
:101290000B4B9C460023E2449B4602338AE6C04641
:1012A000FF07000001FCFFFF0C660008FF030000C1
:1012B000FFFFFFFEFE070000F30300000DFCFFFF31
:1012C00001F8FFFF03231C439F4B32009C4603237E
:1012D000E2446FE69A460323D9460C24039349E679
:1012E000002398469A4601330424039342E60123DF
:1012F0001C4300239B4601335CE600238024984670
:101300000026924B24036DE6012252420121C91AA4
:10131000382900DD62E61F2900DCABE01F204042D7
:10132000C31A5846D8400300202904D0584688499B
:10133000514488400243511E8A411A430723190031
:101340000024114013420CD00F231340042B00D172
:10135000F8E0111D91429B410A005B4259075B0274
:101360001C0BD2080A43904600233BE680244B46E0
:101370002403234209D05B46234206D11C432403A5
:101380002E009046714B240B2CE680244B46240300
:101390001C432403029E6D4B240B23E6002B00D13B
:1013A000FCE60098511E84466444844200D284E0E6
:1013B000BC4200D2ADE000D1C0E00A00ECE64245FC
:1013C00000D928E64B46DC07580843465B081C4317
:1013D0004346DF0726E600F013FD15239C468444B0
:1013E0000200634620321C2B00DC2AE72300083869
:1013F000834099460023984632E700F001FD020041
:101400000300153220331C2A00DCF7E60099083867
:10141000814000228B46FEE60099013B8C466444E5
:10142000A14200D996E6A24200D893E6831E644406
:1014300090E6AC466144013F8D4200D97CE68A4289
:1014400000D879E6871E614476E6854200D05BE6E7
:10145000B94500D958E652E6A24200D816E6831EE6
:10146000644413E68A4200D8FCE5AC46831E9846E5
:101470006144F7E537481400504482405B4617004A
:101480008340CC407A1E974123433B431A005B467E
:10149000CB40510709D00F211140042905D0111D5F
:1014A0009142924152429B180A00190200D455E71A
:1014B000002201230024904694E50A00BC4200D09B
:1014C0006AE64B4500D067E668E6234B5344002BA1
:1014D00000DC19E7012149420A1D8A42894149423B
:1014E0008B4463E60F211140042900D15EE6110010
:1014F000F2E7BC4200D807E602235B429C46009913
:101500004F444F459B41E3448C465B426344C018C3
:10151000FCE54946009D480048458941AC464942A2
:1015200061448146023A6418C8E780245B4624037C
:101530001C4324039046054B240B53E59945E8D3FF
:101540000A00BEE7002309E701F8FFFFFF070000DC
:101550003E0400001E040000FF030000F0B55746E3
:10156000DE464E464546E0B51F000B031B0B16003A
:101570009A46CA0F4B000400934687B05B0D00D11A
:10158000D2E0B94A934200D1F5E05146420FC9007A
:101590000A43802109041143C2009146B34A8A4696
:1015A0009D180023984602933C037B00FA0F3000FD
:1015B000240B5B0D009200D193E0AB4A934231D0F3
:1015C000E400720F2243802424041443A74AF0004D
:1015D000944663445B195A1C0192424600250A2A2C
:1015E0003FDC5A4600994A4093464246022A2FDC85
:1015F000013A012A00D945E1022D00D1C7E0012DB1
:101600003AD100230024002210005A461B05234330
:10161000D2071343190007B0F0BCBB46B246A94637
:10162000A046F0BD264300D1BBE003224146114352
:101630005A46884600998C4B4A4080210901691816
:1016400001914146EB180A2900DD31E2934603255A
:10165000424601279740A6213A00C9000A400F429E
:1016600031D0029D022D00D133E2032D00D1D0E113
:1016700054464846012DC4D0019A7D4B944663449C
:10168000002B00DCC0E0420709D00F220240042AF0
:1016900005D0021D82428041404224181000E20120
:1016A00006D5744B019A1C4080239446DB006344AA
:1016B000714A93426BDC6207C00864025B05024317
:1016C000240B5B0DA0E7902189000F4263D1882293
:1016D0003A4200D1D6E0009BA2469B468146029545
:1016E000BFE72300334300D17FE0002C00D1ABE102
:1016F000200000F085FB020003000B3A1D201900BA
:10170000821A30000839D0408C40044330008840B1
:101710005A4AEB1A944663445A1C019242460025E9
:101720000A2A00DC5DE79CE753460343994654D000
:101730005346002B00D175E1504600F061FB0B23AE
:101740005B429C46020084441100504608398840A0
:101750001D23804660461B1A2000D84003004046E7
:1017600003439A4623008B4099460023434D9846F5
:10177000AD1A029318E752460243914626D1002241
:101780001D00022392460832904602930CE7002483
:101790000022354B38E7002380249B462403324B3C
:1017A00032E7022342461A4380231B01EB1890467E
:1017B00001930A2A00DD54E75A46002000992A4B7B
:1017C0004A40EB189346040002250EE70C221D0048
:1017D0000323814690460293E6E600239A460433AB
:1017E0009846033B00250293DEE6424601331A4346
:1017F0002B0090465A1C01924246002400200125ED
:101800000A2A00DCEDE62CE70122D21A382A00DD94
:10181000F7E61F2A00DC28E11F214942CB1A2100EC
:10182000D9400B00202A05D0154A019E94466644F3
:10183000B4402043421E904118430723190000245E
:10184000014003420CD00F230340042B00D13EE1A2
:10185000031D8342A4411800644261076402240B03
:10186000C20800230A43CFE6FF07000001FCFFFF88
:10187000FF030000FFFFFFFEFE0700000DFCFFFF5F
:101880003E04000049464A460904090C0E00150CA6
:10189000020C0004000C4643B44606006E43B046FA
:1018A00016000F006E43009202963200009E7743AE
:1018B0006646360CB14647444F44B84505D9160034
:1018C000802252029046464402963E0C039666469B
:1018D00036043F04360CB4463E0066440496260C9B
:1018E0002404240CB44626006E43B04666460F001E
:1018F0007143414489466743390C494475438845DF
:1019000003D980225202904645440E0CB04645440D
:101910000595039D3F04A8463F0C0904C919884456
:101920004546039555462F0C2D042D0C2E0046439D
:10193000784381463800B046360CB246009A504390
:101940006A434A445244914503D980267602B146FF
:101950004844160CB14646463604360CB046664638
:101960007E43120448449044B1462A0066466243CE
:1019700075437C43170C2D197F19BC4203D9802471
:101980006402A446E144029C039DA446059E65446E
:101990008D428941B44612043C04120CA2186244E0
:1019A000494254184544A4464545A44182466442F0
:1019B000A046B24292418C458941E244D04449421A
:1019C00052420A43A045A4418245894164424942AA
:1019D0000C4341463F0CD2191219CC0D04996802F0
:1019E0000843411E884141464A44ED0D52022843B6
:1019F000490214430843D20135D50122430802406D
:101A00001343E0071843640836E6009BA2469B4652
:101A100081468024534624031C4324034A462F4B0B
:101A2000240BF1E500F0ECF915239C4684440200F8
:101A3000634620321C2B00DC86E6002399462300F7
:101A4000083883409A4690E600F0DAF90200030075
:101A5000153220331C2A00DC50E602003400083A1C
:101A60000020944054E6019306E61D4B21009C465D
:101A70000300019ED3406644B14019430300B340C4
:101A8000581E834119430800D4404B0709D00F2347
:101A90000B40042B05D00B1D8B4280414042241883
:101AA0001800230200D4D8E6012300240022ABE56D
:101AB0000F29AAD1802352461B031A42A9D01C42E7
:101AC000A7D11C43009B02009B46044B9CE50024CD
:101AD000C3E60024014B220096E5C046FF07000044
:101AE0001E04000070B5002816D0C317C5185D404D
:101AF000C40F280000F084F9114B1B1A0A2816DCC9
:101B000002002E00153296400B22121AD5405B05BA
:101B10002D032D0B5B0D03E0002400230025002680
:101B20001B052B43E40723433000190070BD0B381D
:101B300085405B052D0300262D0B5B0DF0E7C046AD
:101B40001E04000070B542024300C40FFE201B0EAD
:101B5000591C550A08420CD0E02189008C466D07BB
:101B6000120B63441B051343E407234328001900A9
:101B700070BD002B14D1002D1BD0280000F040F9BF
:101B80000A281CDC0B232A001B1ADA400300153339
:101B90009D400E4B12031B1A5B05120B5B0DE1E718
:101BA000002D09D0130B802212031A436D07084B36
:101BB000D8E700230022D5E70022054BD2E7030037
:101BC0002A000B3B9A400025E3E7C046890300004A
:101BD000FF070000F0B54B000F035B0D3F4C450FB6
:101BE00083B07F0A5E1C2F4300900191CA0FC5008D
:101BF00026420BD03A495C18FE2C13DDFF2000234F
:101C0000C0051843D207104303B0F0BD002B02D12A
:101C100000200023F4E73D43F0D08023DB03FF20C6
:101C20003B43EDE7002C14DD009BFF009B01581E99
:101C30008341690F3B430B43590741D00F211940A2
:101C4000042947D00433590142D501340023E0B2BE
:101C5000D6E721001731DBDB80211E200904394340
:101C6000001B1F281BDD02267642341B0E00E640B7
:101C70003400202804D01B488446634499400D4317
:101C80006B1E9D4125436B071DD00F210024294069
:101C9000EB0804291BD15B025B0AE0B2B0E7124CEF
:101CA0001C192B00A540C340A140681E8541294353
:101CB0000B4300245907C1D19B0100205B0A9FE719
:101CC000DB08E0B29CE7AD0100206B0A98E72B1D12
:101CD000DB08E0E79B015B0AE0B291E7FE0700004A
:101CE00080FCFFFFA2FCFFFF82FCFFFF00224308F5
:101CF0008B4274D303098B425FD3030A8B4244D3D4
:101D0000030B8B4228D3030C8B420DD3FF22090215
:101D100012BA030C8B4202D31212090265D0030BD4
:101D20008B4219D300E0090AC30B8B4201D3CB03CA
:101D3000C01A5241830B8B4201D38B03C01A52410C
:101D4000430B8B4201D34B03C01A5241030B8B420E
:101D500001D30B03C01A5241C30A8B4201D3CB02F9
:101D6000C01A5241830A8B4201D38B02C01A5241DE
:101D7000430A8B4201D34B02C01A5241030A8B42E1
:101D800001D30B02C01A5241CDD2C3098B4201D3F9
:101D9000CB01C01A524183098B4201D38B01C01A77
:101DA000524143098B4201D34B01C01A52410309EE
:101DB0008B4201D30B01C01A5241C3088B4201D39D
:101DC000CB00C01A524183088B4201D38B00C01A4A
:101DD000524143088B4201D34B00C01A5241411A71
:101DE00000D20146524110467047FFE701B500207E
:101DF000FFF796F802BDC0460029F7D076E7704796
:101E00001C2101231B04984201D3000C10391B0A2A
:101E1000984201D3000A08391B09984201D30009EE
:101E2000043902A2105C40187047C0460403020245
:101E3000010101010000000000000000F0B51D00DC
:101E400000238BB01400109F149E9D4204DA802161
:101E500009066B181D002D23129A137020233200DF
:101E60009A430792079B0322462B04D0453B5942D5
:101E70004B41013AFF1809AB049308AB0393139B42
:101E80000092029322002B00019701F0E3F80690E4
:101E9000672E19D1119BDB070ED50300DE19002236
:101EA00000232000290003F08BFA002800D00996B7
:101EB0003022099BB34227D3069A099B06989B1AA6
:101EC000159A13600BB0F0BD472E04D1119BDB07B0
:101ED000F2D5069BE2E7069BDE19079B462BDED177
:101EE000069B1B78302B0BD10022002320002900F9
:101EF00003F066FA002803D10123139ADB1B136059
:101F0000139B1B68F618CAE7591C09911A70D0E791
:101F1000F0B52B2305000C0085B00270002901DA12
:101F20004C4202336B70092C2CDD02ABDE1D20000D
:101F30000A21FEF7F1FF37003031013E20003170F9
:101F40000A210194FEF702FF019B0400632BEEDCE3
:101F5000BA1EA81C010013003034147002AC073400
:101F60009C420AD80023A24203D8093302AA9B1834
:101F7000DB1BC018401B05B0F0BD1C7801330C7092
:101F80000131EBE73023E418AB70281DEC70F1E76A
:101F9000F0B595B00D0009921A9E0A93089000F0D2
:101FA00057FF036818000C9300F0BFFF0023129343
:101FB0002B680D902C7E0B930B9907223368C90573
:101FC00045D59B1893431A000832326001221E68DF
:101FD0005F687B005B080F930E96AE64EF640E980B
:101FE0000F99A84B524204F023FA002831D10E98E1
:101FF0000F990122A34B524203F0F2F9002828D195
:10200000002200233000390003F0E0F9002803D05B
:102010002B002D2243331A709B4F472C00D99B4F26
:1020200003230B9A2B6101339A4300232A600B93FD
:102030000A9B290000930898099B13AA00F0E2F973
:10204000013000D0A1E00120404215B0F0BD0733BF
:10205000B8E732003B003000390004F0E9F900280D
:102060000AD0002F03DA2B002D2243331A70884F39
:10207000472CD5D9874FD3E76B685A1C2DD107332E
:102080006B6080230B9ADB00134300222B600692C7
:1020900012AA059211AA0392232208A952180292A9
:1020A000049401936B683200009308983B00FFF79B
:1020B000C5FE119A0700672C18D1D31C41DB6B6851
:1020C0009A423EDC1199129B994258DB2B68296198
:1020D000DB074FD5013129614CE0202221009143DB
:1020E0004729CED1002BCCD10133C9E7472C07D1EA
:1020F000D31C03DB6B6820349342E3DA452401E010
:10210000652C20D8280011992200013950301191F6
:10211000FFF7FEFE129A0B9013182B61012A02DCC6
:102120002A68D20701D501332B61232308AA9B1803
:102130001B78002B00D17BE72B002D2243331A7034
:1021400076E76524DEE7662CBCD16B68002A09DDE2
:102150002A61002B02D12968C9070BD501339B18CE
:102160002B6107E0002B03D101222968114200D026
:102170009A1C2A61119BAB6500230B93D5E70122C2
:102180000029ECDC9218521AE9E72A68530508D4B2
:102190002B693A00099908980A9CA047013028D178
:1021A00051E7652C00D8DAE0A86CE96C0022002326
:1021B00003F006F9002833D00123374A099908981B
:1021C0000A9CA047013000D13DE7129E119BB3420B
:1021D00002DB2B68DB070CD50A9C0D9B0C9A099936
:1021E0000898A0470024013000D12CE7731EA342B9
:1021F0000ADC2B689B0700D501E1139BE868984235
:1022000000DB22E7180020E72A000123099908983B
:102210000A9F1A32B847013000D114E70134E5E7CC
:10222000119B002B3ADC01231B4A099908980A9C50
:10223000A047013000D106E7129E119B334302D123
:102240002B68DB07D5D50D9B0C9A099908980A9C39
:10225000A0470023013000D1F5E60B93119B0B9AA8
:102260005B42934201DC330093E72A000123099982
:1022700008980A9C1A32A047013000D1E3E60B9B74
:102280000133EAE7FFFFEF7F4C6600085066000865
:1022900054660008586600085C660008129BAE6D24
:1022A0000B939E4200DD1E00002E31DCF343002420
:1022B000DB1733400E93AE6D0E9BF31AA34230DC56
:1022C000119B0B9A9A4238DC2B68DB0735D4119CA2
:1022D0000B9B0B9A9B1B141B9C4200DD1C00002CCB
:1022E00034DCE3430026DB171C40119B0B9AD31A06
:1022F0001B1BB34200DC7CE72A00012309990898E4
:102300000A9F1A32B847013000D19CE60136ECE74B
:1023100033003A00099908980A9CA0470130C5D1BA
:1023200091E62A000123099908980A9E1A32B047BB
:10233000013000D187E60134BDE70D9B0C9A099965
:1023400008980A9CA0470130C1D17CE6BA19230045
:10235000099908980A9EB0470130C2D173E6129CD1
:10236000012C02DC01231A4236D001233A000999DC
:1023700008980A9EB047013000D164E60D9B0C9A84
:10238000099908980A9EB047013000D15BE6A86C15
:10239000E96C00220023013C03F012F8002819D157
:1023A00023007A1C099908980A9CA04701300DD196
:1023B00049E62A000123099908980A9F1A32B8476A
:1023C000013000D13FE60136A642F2DB2A000B9B2A
:1023D0005032DFE60026F7E73A00E3E72A00012360
:1023E000099908980A9E1932B047013000D12AE6AF
:1023F0000134EB68139A9B1AA342EFDCFDE600243C
:10240000F7E7C046F7B5160001938A680B690C0020
:102410000090934200DA13002200336043321278B6
:10242000002A01D00133336023689B0602D533684C
:10243000023333602268062315001D401A4227D05C
:10244000230043331B785A1E93412268920630D4EE
:10245000220001990098089D4332A847013025D0F9
:102460000622236800251340042B05D13368E56854
:10247000ED1AEB43DB171D40A3682269934201DD8F
:102480009B1AED180026B54220D1002010E001353E
:10249000E36832689B1AAB42D2DD22000123019926
:1024A0000098089F1932B8470130F0D1012040420E
:1024B000FEBD3020E1184331087021005A1C45311F
:1024C0000978A218433202331170C1E722000123B8
:1024D00001990098089F1A32B8470130E6D00136BA
:1024E000D1E70000F0B58BB006920A0043320793A3
:1024F000059004920A7E0C00109B782A09D8622A63
:102500000BD8002A00D1C8E081490391582A00D194
:102510009CE0250042352A7022E01000633815281F
:10252000F7D802F033FF16001F00F6FFF6FFF6FFA4
:10253000F6FF1F00F6FFF6FFF6FFF6FFAD004F00B7
:102540008C00F6FFF6FFBE00F6FF4F00F6FFF6FF29
:10255000900025001A684235111D196013682B7010
:102560000123ACE018680968021D0D061FD5066836
:102570001A60674A0A2761680392002E35DA230041
:102580002D2043331870A160002916DA0A277642FD
:102590000392049D30003900FFF72EFC039B013DA0
:1025A0005B5C2B70330006009F42F3D92AE006687B
:1025B0001A604906DDD536B2DBE7042123688B4378
:1025C0002360E3E70868196840C9050602D440069D
:1025D00000D5B6B219604E4B0A2703936F2A00D17B
:1025E000023F2300002243331A706368A360002B6C
:1025F000CFDB042122688A432260002EC9D1049DCA
:10260000002BC6D1082F09D12368DB0706D56268E5
:1026100023699A4202DC3023013D2B70049B5B1B33
:102620002361079B210000930598069B09AAFFF7E9
:10263000E9FE013048D1012040420BB0F0BD20221C
:1026400009680A432260782232490391210045310A
:102650000A701968226840C9100602D4500600D5D5
:10266000B6B21960D30702D5202313432360002E8E
:1026700001D01027B5E72022236893432360F8E7B1
:102680001A680D68101D4969186013682E0601D577
:10269000196002E06D06FBD519800023049D2361BB
:1026A000BFE71A68111D19601568002128006268CB
:1026B00000F030FC002801D0401B6060636823619B
:1026C0000023049A1370ACE72A0023690699059841
:1026D000079DA8470130AED023689B0715D4099BFE
:1026E000E0689842A9DA1800A7E7220001230699BA
:1026F0000598079E1932B04701309CD00135E36838
:10270000099A9B1AAB42F0DCE9E70025F7E7C046DF
:102710005E6600086F660008F7B50C228B5E050048
:102720000C001A0761D44A68002A02DC0A6C002AED
:1027300042DDE76A002F3FD0002280202E682A6009
:102740001A004001216A0240034227D0626DA3892A
:102750005B0706D56368D21A636B002B01D0236C2C
:10276000D21A00232800E76A216AB847431C25D003
:102770000023636023692360A389DB0400D56065BF
:10278000616B2E60002917D023004433994202D098
:10279000280001F0B5FA002363630DE0012328004F
:1027A000B8470200431CD2D12B68002BCFD01D2B81
:1027B00001D0162B31D12E60002035E02B680C2182
:1027C000625E002B08D01D2B01D0162B0AD10023EE
:1027D000636023692360D3E7636023692360D204C5
:1027E000CDD4CDE7402313431BE00E69002EE3D088
:1027F0000F680E60BA1B019200229B0700D14A6944
:10280000A260019B002BD7DDA36A32001F002800C5
:10281000019B216AB847002807DC4023A2891343A3
:102820001BB20120A3814042FEBD019B36181B1A3A
:102830000193E6E70B6970B505000C00002B02D18F
:102840000025280070BD002804D0036A002B01D1A8
:1028500000F030F90C22A35E002BF1D0626ED2079B
:1028600004D49B0502D4A06D00F04DFB280021008C
:10287000FFF752FF636E0500DB07E2D4A3899B05D7
:10288000DFD4A06D00F045FBDBE70000010010B5D0
:10289000002805D1054A0649064800F03FF910BD59
:1028A000054B1868FFF7C6FFF9E7C0460400002093
:1028B000352800081400002010000020002310B567
:1028C000040003604360836081814366C2810361C9
:1028D00043618361190008225C3000F0AFFA0B4BB2
:1028E000246263620A4BA3620A4BE3620A4B2363CE
:1028F0000A4B9C4205D00A4B9C4202D0094B9C4299
:1029000003D12000583000F0FAFA10BD4D2C000819
:10291000792C0008B12C0008DD2C00087C02002076
:10292000E40200204C03002010B5034A0349044888
:1029300000F0F4F810BDC04604000020352800085F
:102940001400002041680B4B10B50400994201D0DF
:10295000FFF770FFA168084B994202D02000FFF7F3
:1029600069FFE168054B994202D02000FFF762FF42
:1029700010BDC0467C020020E40200204C03002071
:102980004B6E10B5DB0705D48B899B0502D4886D8F
:1029900000F0B9FA002010BD4B6E10B5DB0705D46E
:1029A0008B899B0502D4886D00F0B3FA002010BD1E
:1029B00010B5094B094A04211A6009480022FFF7A3
:1029C0007DFF012209210748FFF778FF022212212B
:1029D0000548FFF773FF10BDB40300202929000844
:1029E0007C020020E40200204C03002010B50248C5
:1029F00000F089FA10BDC046BF03002010B50248A0
:102A000000F087FA10BDC046BF030020F8B50700EC
:102A1000FFF7ECFF244B1B68002B01D1FFF7C8FF29
:102A2000224EB4687368013B0FD53568002D38D14C
:102A3000D6213800490001F0E3F9041E26D13060A8
:102A4000FFF7DCFF0C233B601CE00C22A55E002D91
:102A50001AD12000164B5830E360656600F04FFA3B
:102A6000FFF7CCFF2000082229002560A5606560E3
:102A700025616561A5615C3000F0E0F96563A563DF
:102A8000A564E5642000F8BD6834CCE70423D022B7
:102A9000056043600C302900A060520000F0CEF9C0
:102AA00034603668BDE7C046B4030020040000204F
:102AB0000100FFFF10B50400FFF798FF236A002B09
:102AC00002D0FFF79BFF10BD044B2362044B1B6831
:102AD000002BF6D1FFF76CFFF3E7C046452900084D
:102AE000B403002010B5FFF781FF0020024A03491C
:102AF00000F014F810BDC046040000208129000831
:102B000010B5044A0449002000F008F8FFF776FFEA
:102B100010BDC0460400002099290008F7B5140034
:102B2000002600900191A5686768013F04D52468DC
:102B3000002CF8D13000FEBDAB89012B08D90E2244
:102B4000AB5E013304D029000098019B98470643EF
:102B50006835EAE70EB403B503AB04CB8168019393
:102B600001F0F8FE02B008BC03B018470FB407B577
:102B7000054904AB086804CB8168019301F0EAFEC3
:102B800003B008BC04B0184710000020036A70B5F9
:102B900005000E008468002B01D1FFF78BFF636EE8
:102BA000DB0705D4A3899B0502D4A06D00F0ABF927
:102BB000A3891B0702D52369002B1AD12100280005
:102BC00000F0DEF8002814D001256D42636EDB07AB
:102BD00005D4A3899B0502D4A06D00F09AF92800C2
:102BE00070BD0136A360002B14DB23685A1C2260E1
:102BF0001970A3683178013B0029F2D1A360002B42
:102C000014DA220028000A3100F06EF80130DBD01F
:102C10000A25DBE7A2699A4201DC0A29E5D12200F4
:102C2000280000F061F80130E3D1CDE723685A1C99
:102C300022600A221A70EBE710B5034B01001868F6
:102C4000FFF7A4FF10BDC0461000002070B50C00B7
:102C50000E25495F00F02AF9002803DB636D1B187D
:102C6000636570BDA389024A1340A381F9E7C0469A
:102C7000FFEFFFFF00207047F8B51F008B890500AC
:102C80000C001600DB0505D50E23C95E00220223C9
:102C900000F0F8F8A389054A28001340A381320008
:102CA0000E23E15E3B0000F015F9F8BDFFEFFFFFDA
:102CB00070B50C000E25495F00F0E4F8A389421CB2
:102CC00003D1054A1340A38170BD802252011343F2
:102CD000A3816065F8E7C046FFEFFFFF10B50E2344
:102CE000C95E00F0BDF810BDF8B506000D00140077
:102CF000002804D0036A002B01D1FFF7DBFEA36993
:102D0000A360A3891B0702D52369002B09D12100E9
:102D1000300000F035F8002803D001256D4228006E
:102D2000F8BD23692068EFB2C01A6369EDB283422F
:102D300005DC21003000FFF77DFD0028EDD1A36800
:102D40000130013BA36023685A1C22601F70636935
:102D5000834204D0A389DB07E1D50A2DDFD121000E
:102D60003000FFF767FD0028D9D0D6E710B5034B38
:102D70000A0001001868FFF7B7FF10BD100000201F
:102D80002D4B70B5050018680C00002804D0036AAC
:102D9000002B01D1FFF78EFE0C23E25E130723D434
:102DA000D30607D409232B60402301201343A381BA
:102DB00040423AE0520713D5616B002908D0230046
:102DC0004433994202D0280000F09AFF0023636345
:102DD0002422A3899343A381002363602369236092
:102DE0000823A2891343A3812369002B0BD1A021BF
:102DF0008022A389890092000B40934203D02100D6
:102E0000280002F057F80C23E25E012113000B406A
:102E10000A420BD00023A36063695B42A3610020D8
:102E20002369834201D11306BED470BD910700D43B
:102E30006369A360F3E7C046100000200300821816
:102E4000934200D1704719700133F9E7F0307047B1
:102E50000048704750010020004870475001002092
:102E6000002370B5064D040008002B60FDF725FE19
:102E7000431C03D12B68002B00D0236070BDC046DB
:102E80007802002070B50400080011001A00002329
:102E9000054D2B60FDF76CFE431C03D12B68002B06
:102EA00000D0236070BDC0467802002070B50400D9
:102EB000080011001A000023054D2B60FDF7E0FE0D
:102EC000431C03D12B68002B00D0236070BDC0468B
:102ED0007802002070B50400080011001A000023D9
:102EE000054D2B60FDF708FF431C03D12B68002B19
:102EF00000D0236070BDC046780200207047704744
:102F00007047704770477047012070470120704735
:102F100070477047C9B28218904201D100207047B3
:102F200003788B42FBD00130F6E70023C25C01330B
:102F3000002AFBD1581E7047F0B502690F6987B0AF
:102F400006000B0000200291BA426DDB013FBC007D
:102F5000143305931B190393330014331C19019385
:102F600023680493039B04981D6801352900FEF72C
:102F7000BDFE049B0090AB422BD3059B019D9C465C
:102F8000002305930493624608CA28689446009A71
:102F900099B25143059A1B0C8918009A53430A0CA5
:102FA0009B181A0C89B2059282B2521A0499000C2D
:102FB00052189BB21114C31A5B18191492B21B0455
:102FC0001A43039B049104C56345DCD22368002B9C
:102FD00030D03000029901F07BFA002823DB340066
:102FE0000025029914341431236801C902936B46F9
:102FF0001B8982B29A1A029B5219000C1B0C1B1AD5
:1030000010141B181D1492B21B041A43039B04C412
:103010008B42E9D2019ABB00D3181A68002A13D058
:10302000009B01330093009807B0F0BD2368002B8C
:1030300004D1013F019B043CA342F7D33761C8E7A9
:103040001A68002A04D1013F019A043B9A42F7D33F
:103050003761E5E7F0B514001D00C6699BB0069422
:103060000795239F0390002E0FD1102000F092FEB1
:10307000039B021ED86104D1EF21C74BC74801F062
:10308000E9FF466086600660C660039BDB691968DD
:1030900000290BD05A68012393404A608B60039843
:1030A00000F07CFF0022039BDB691A60002D1EDA12
:1030B00001233B606B005B080793079EB84BB84A3F
:1030C0003340934216D1B74B229A136033031B0B44
:1030D000234301D100F004FEB34B249A0593002A48
:1030E00002D0B24B249A136005981BB0F0BD0023A8
:1030F0003B60E2E7069A079B0E920F930E980F999A
:103100000022002302F05CF9071E0BD00123229A53
:103110001360249B002B02D0A54B249A1360A54B6F
:103120000593E1E718AB019319AB009303980E9A4E
:103130000F9B01F0EFFA72000490520D00D17BE07A
:103140000F9B179719039C4B090B0B439B49561870
:103150000E980F9919000022994B02F0E7FD994A49
:10316000994BFEF7FBF9994A994B02F057F9040085
:1031700030000D00FEF7B6FC964A974BFEF7EEF9CD
:1031800002000B002000290002F048F904000D00A5
:1031900003F070F90022029000232000290002F0C1
:1031A00015F900280BD00298FEF79CFC2B0022009A
:1031B00002F006F943425841029B1B1A0293012375
:1031C0001693029B162B10D80E980F99029A834BD8
:1031D000D2009B181A685B6802F0F8F8002847D004
:1031E000029B013B0293002316930022189B089236
:1031F0009B1B5A1E3ED50122D31A089300230D9320
:10320000029B002B38DB029A0D9B944663440D937E
:10321000002313920B93209B0124092B67D8052BC5
:1032200002DD0024043B2093209B981E032867D8CE
:1032300002F0A2F82B3A385B199B189FFF18684BD5
:10324000FA18202A0FDD40239B1A9E40654B300060
:10325000FB18DC40204303F049F90122624B7E1E3B
:10326000CB18179276E7202320009B1A9840F2E7AC
:103270001690BAE70D92C3E7089B029A9B1A08932F
:1032800053420B9300231393C5E700231193219B13
:1032900010930A93002B13DC01231A0010930A9356
:1032A00021920DE00123F1E70023219A1193944626
:1032B000029B6344109301330A93002B00DC01232B
:1032C000039A0021D0690422150014359D421BD9B0
:1032D0004160039800F01EFE0590002817D1B02130
:1032E000424B2E48059AFF31C9E60123DDE7002352
:1032F00011942093013B10930A9300221333CFE7DC
:1033000001231193023BF6E701315200DCE7039BF6
:10331000059ADB691A600A9B0E2B00D9A0E0002CED
:1033200000D19DE0029B002B64DD0F21029A2B4B04
:103330000A40D2009B181E685F68029B02241D1180
:10334000DB050AD52A4B0D401A6A5B6A0E980F9965
:10335000FDF7E8FD069007910134254B0C93002DF5
:1033600008D10698079932003B00FDF7DBFD069077
:1033700007915AE001231D4209D0E4180C9B30004C
:103380001A685B683900FEF7E9F806000F000C9B2D
:103390006D100833E2E7C0468D660008A466000899
:1033A0000000F07F0F270000896600088C66000887
:1033B0005D6600085C6600080000F03F01FCFFFF4E
:1033C0000000F83F61436F63A787D23FB3C8608BAB
:1033D000288AC63FFB799F501344D33FC867000833
:1033E0003204000012040000000010FEFD66000818
:1033F000A0670008029B0224002B16D00E980F999C
:103400000F225D422A40B14BD2009B181A685B68BC
:10341000FEF7A4F80127002306900791AC4E2D116A
:10342000002D00D0EBE0002BA1D1069E079F169B3C
:10343000002B00D145E1002230003900A54B01F0FE
:10344000C5FF002800D13CE10A9B002B00D138E1E8
:10345000109B002B00DDDDE00E9B0F9C0693079474
:10346000199B002B03DB029A0E2A00DC5AE2119A08
:10347000002A00D084E200270B9D089C002C0ED06F
:103480000D9B002B0BDD0D9A2300944200DD1300F1
:10349000089AE41AD21A08920D9AD31A0D930B9B2C
:1034A000002B21D0119B002B00D1BEE2049E002DE9
:1034B00014D039002A00039800F042FF049A01005A
:1034C0000700039800F08AFE06000499039800F0B4
:1034D00065FD0B9B04965B1B0B9305D031000B9A8B
:1034E000039800F02DFF04900121039800F05EFE88
:1034F000139B0B90002B00D1A6E21A000100039849
:1035000000F01EFF209B00250B90012B03DC069B87
:10351000AB4200D1A1E20B9B0B9A1B6903339B00CA
:10352000D318586800F0EEFD20231395181A0D9B50
:10353000C01802001F231A40184200D1A9E201332B
:103540009B1A042B00DC9FE21C239B1A089AE418A8
:10355000D21808920D9AD3180D93089B002B05DD05
:103560001A000499039800F047FF04900D9B002B6C
:1035700005DD1A000B99039800F03EFF0B90169B97
:10358000002B00D18EE20B99049800F0A1FF0028D7
:1035900000DB87E2029B0A22013B0C930499002383
:1035A000039800F01FFD119B0490002B00D172E2E4
:1035B000002339000A22039800F014FD109B070035
:1035C000002B03DC209B022B00DD75E2002C05DDC7
:1035D00039002200039800F00FFF0700139B38000A
:1035E000002B00D1B1E27968039800F093FC041E2F
:1035F00000D09DE22200384B384839493FE53D4232
:1036000005D032687368FDF7A9FF3B0001346D10E7
:10361000083605E7029B0022013B0C933000314B3A
:103620003900FDF79BFF06900791109B01342000A5
:103630001293FEF757FA069A079BFDF78FFF2A4B66
:10364000002201F0EBFE294B0600CF18129B002B45
:1036500050D1069807990022254B02F067FB3200F3
:103660003B0004000D0001F0C5FE002800D03DE243
:10367000802109067B1832002000290001F0A6FEF7
:10368000002800D1E8E600231F000B93219B059D35
:10369000DB430C93002302930B99039800F07EFC0C
:1036A000002F00D1CBE0029B002B05D0BB4203D002
:1036B0001900039800F072FC3900039800F06EFCCA
:1036C000BDE0029B0C930A9BB1E7C046C8670008A7
:1036D000A06700080000F03FFD660008A46600082F
:1036E000EF0200000000244000001C400000C0FC6D
:1036F00000001440129ACE4B013AD2009B18186871
:103700005968119B002B52D002000B000020C949C0
:10371000FDF708FC32003B0002F008FB059A0600AA
:1037200094460F00059B1493129B634412930698D2
:10373000079902F09FFE0400FEF7D4F902000B0087
:103740000698079902F0F2FA149B3034069007911C
:1037500002005D1C1C7030000B00390001F04AFEB5
:1037600000286CD1069A079B0020B34902F0DEFACC
:1037700002000B003000390001F03CFE002800D0B0
:1037800016E1129BAB4200D1F0E00022300039007C
:10379000AA4BFDF7E3FE002206000F0006980799EA
:1037A000A64BFDF7DBFE149506900791BFE73200AC
:1037B0003B00FDF7D3FE059D129A2B009446149012
:1037C0001591634417930698079902F053FE04007D
:1037D000FEF788F90B0002000698079902F0A6FA96
:1037E0003034179B2C70013506000F00AB4229D1F5
:1037F00014981599059B129D9C4600228D4B65449B
:1038000001F00CFE02000B003000390001F0F2FD67
:10381000002800D0CCE0149A159B0020854902F0C6
:1038200085FA02000B003000390001F0CFFD0028BE
:103830000FD02B00013D2A78302AFAD01D000C9BB6
:1038400002935DE000227D4BFDF788FE0690079114
:10385000B9E70E9B0F9C06930794199B002B00DA87
:1038600009E6029B0E2B00DD05E6029A704BD200A2
:103870009B185C681B6808930994219B002B02DA53
:103880000A9B002B60D0069E079F0A9B059C013B6C
:103890001B190A93089A099B30003900FDF742FB77
:1038A00002F0E8FD0690FEF71DF9089A099BFDF766
:1038B00055FE02000B003000390002F037FA2300F9
:1038C000069A013430321A700A9A25009A4200D0C2
:1038D00081E002000B0001F0A1FD089A099B06009F
:1038E0000F0001F087FD002860D1089A099B300085
:1038F000390001F065FD002802D0069BDC0755D495
:103900000499039800F04AFB00232B70029B229A33
:1039100001331360249B002B01D1FFF7E5FB1D60F1
:10392000FFF7E2FB029A424BD2009B185C681B68CF
:1039300008930994219B002BA5DA0A9B002BA2DC9B
:103940000A9B002B00D09EE60898099900223C4B68
:10395000FDF704FE069A079B01F056FD002800D0F3
:1039600091E6029B07000C930B90B6E00E9B0F9C18
:1039700006930794199B002B02DB029A0E2AD1DDD5
:10398000209A012A39DC179A002A32D02D4A9B1836
:103990000B9D089C089A0121D21808920D9A039851
:1039A000D3180D9300F002FC070067E5029B0C930F
:1039B0002B001D00013B1A78392A08D1059A9A423A
:1039C000F7D10C9A059901320C9230220A701A78BC
:1039D00001321A7033E70022184BFDF7BFFD0022B9
:1039E000002306000F0001F0EBFC002800D151E796
:1039F00086E73623189A9B1ACAE70A9B5D1E0B9B23
:103A0000AB4208DB5D1B0A9B002BC2DA089B0A9ABB
:103A10009C1A0023BEE70B9B139AEB1AD31813933F
:103A20000B95089C00250A9BB4E70B9A049957E56F
:103A3000C86700080000E03F0000F03F000024409D
:103A400000001440330400000120209B834200DD6D
:103A50006DE5069B002B00D069E50025079B1B0345
:103A6000AB420AD1A34B079A134206D0089B0135FB
:103A7000013308930D9B01330D93139B002B00D052
:103A800049E50120139552E5042B00D165E51C336F
:103A90005CE51300FBE7109B002B33DC209B022B23
:103AA0000ADC2FE00A9B002B24DC209B022B21DD6B
:103AB000029B0C930A9B1093109B002B00D0E5E512
:103AC0000B990522039800F08DFA01000B900498E1
:103AD00000F0FEFC002800DCD8E5059B059A5D1C83
:103AE000312313700C9B01330C93D3E5129B1F0001
:103AF0000B93F2E7029B0C930A9B1093119B002BF4
:103B000000D063E500250B990498FFF715FA059B93
:103B100030305855109B01350400AB4200DCB8E052
:103B200000230A220499039800F05CFA0490EAE763
:103B300039003A690C31023292000C3001F080FAFF
:103B400001222100039800F057FC02970700059B13
:103B5000109A0A93013B9B1810930B990498FFF756
:103B6000EBF9029904000890049800F0B1FC0B995D
:103B700005003A00039800F0C7FCC3680600010086
:103B80003034002B15D0039800F008FA002D2DDA00
:103B900004990122039800F02FFC0B99049000F087
:103BA00097FC002802DC1DD1E3071BD5392C14D16A
:103BB00025E0049800F08CFC31000D90039800F093
:103BC000EDF9209B0D9A134326D1069A0133134237
:103BD00006D1392C13D0002D04DD089C313401E0CE
:103BE000002D29DA0A9B5D1C1C7055E5209B1D43A6
:103BF00003D10123069A1342CAD0392C37D10A9B2C
:103C00000A9A5E1C392313703500013E3378392B34
:103C10005CD0013333703FE5002D06DB209B1D4354
:103C200007D10123069A134203D10D9B002BAFDC71
:103C3000D8E70D9B002BE0DC0A9B0A9A5E1C1C70E7
:103C4000109B93422ED000230A220499039800F07F
:103C5000C9F9029B0490BB420DD100230A220299AC
:103C6000039800F0BFF9029007000A9675E70A9BD7
:103C700001345D1CB8E7029900230A22039800F082
:103C8000B1F9002302900A223900039800F0AAF942
:103C9000EAE7109B0126002B00DD1E00059B9E1904
:103CA0000023029304990122039800F0A5FB0B99CD
:103CB000049000F00DFC0028A6DC01D1E407A3D499
:103CC0003500013E3378302BFAD0E5E4059BB34252
:103CD0009AD10C9B059A01330C9331231370DBE4CA
:103CE000054B249A0593054B002A01D0FFF7FAF9FA
:103CF000FFF7FAF90000F07F806600088866000888
:103D000070B505000C1E10D0043C2368002B00DAAF
:103D1000E418280000F0EEF81D4A1368002B05D1C6
:103D200063601460280000F0EDF870BDA34208D96C
:103D3000206821188B42F3D119685B68091821604B
:103D4000EEE71A005B68002B01D0A342F9D9116895
:103D50005018A0420BD120680918501811608342F6
:103D6000E0D118685B68411811605360DAE7A0423F
:103D700002D90C232B60D5E7206821188B4203D190
:103D800019685B680918216063605460CAE7C0461F
:103D9000C403002010B5034B0100186800F030F890
:103DA00010BDC0461000002010B5034B010018687C
:103DB000FFF7A6FF10BDC0461000002070B50F4EE3
:103DC0000D0031680400002902D101F01DF93060B6
:103DD0002900200001F018F9431C03D101256D4290
:103DE000280070BD0323C51C9D43A842F8D0291AA2
:103DF000200001F009F90130F2D1EFE7C003002003
:103E00000323F7B5CD1C9D43083506000C2D34D295
:103E10000C25A94233D8300000F06CF8344F3B68D1
:103E20001C00002C2FD129003000FFF7C7FF040031
:103E3000431C58D13C682100002949D1002C4CD0AA
:103E400023683000E318019301F0DEF8019B834200
:103E500043D123683000ED1A2900FFF7AFFF01308E
:103E60003BD023685B1923603B68002B3DD05A6828
:103E7000A24230D100225A6012E0002DC9DA0C2390
:103E800033600020FEBD2168491B1ED40B2917D9C1
:103E900062192560A34211D13A60636811605360D2
:103EA000300000F02FF8200007220B30231D904334
:103EB000C21A9842E6D01B1AA350E3E75A60ECE717
:103EC0006268A342D7D13A60EAE723006468A8E7B2
:103ED0000C004968B0E71300C7E70C2330003360DB
:103EE00000F010F8CDE70560DAE75B60FFDEC04662
:103EF000C403002010B50248FFF705F810BDC04606
:103F0000BC03002010B50248FFF703F810BDC046FF
:103F1000BC03002070B5C56906000C00002D0ED151
:103F20001020FFF737FF021EF06104D16B21194BFF
:103F3000194801F08FF8456085600560C560F56936
:103F4000EB68002B13D0F369A200DB689B1818689C
:103F5000002818D101210D00A5406A1D30009200F3
:103F600001F09BF800280CD0446085600DE0212210
:103F70000421300001F091F8F369E860DB68002B60
:103F8000E1D1002070BD02681A6000230361C360A4
:103F9000F8E7C0468D6600080E67000870B5C66970
:103FA00005000C00002E0ED11020FFF7F3FE021EBC
:103FB000E86104D18F21094B094801F04BF84660B4
:103FC00086600660C660002C07D0EB696268DB681B
:103FD00092009B181A6822601C6070BD8D660008F4
:103FE0000E670008F7B50F0001900C001E000020BE
:103FF0000D6914373B68013099B251431B0C534390
:1040000089190E0C9B191E0C89B21B045B1808C77A
:104010008542EFDC002E22D0A368AB4219DC616838
:1040200001980131FFF776FF071E05D13A00BA214A
:104030000C4B0D4801F00EF8210022690C310232C0
:1040400092000C3000F0FCFF21000198FFF7A6FF62
:104050003C002B1D9B00E31801355E6025612000AC
:10406000FEBDC046FD6600080E670008F7B50700F4
:1040700018000C000830092101931500FCF766FEBA
:104080000123002183420ADB3800FFF743FF011EB2
:1040900008D10A00194B1A48D33100F0DBFF5B004E
:1040A0000131EFE7089B436101230361092D18DD0E
:1040B000230009331E000093641933780A22380064
:1040C000303BFFF78FFF01360100A642F5D12C00EF
:1040D000009B083C1C192E00019B9E4204DB08003B
:1040E000FEBD09250A34F6E7631B9B5D0A223800F2
:1040F000303BFFF777FF01360100EDE7FD66000872
:104100000E6700088022030052020020934201D271
:104110001B04103080225204934201D208301B024B
:1041200080225205934201D204301B018022D20525
:10413000934203D3DB43DB0FC018704799009B0009
:1041400001D50230F9E703301142F6D12020F4E71F
:104150000368010007221800104013420DD0063AF0
:104160000020134205D10230034203D0D340100097
:104170000B6070479B080B60FBE79AB2002A01D1E5
:1041800010201B0CDAB2002A01D108301B0A1A07D2
:1041900001D104301B099A0701D102309B08DA07CC
:1041A000E9D401305B08E6D12020E2E710B50C002D
:1041B0000121FFF7AFFE002807D14621054C020080
:1041C000054B2000FF3100F045FF012344610361EE
:1041D00010BDC0460E670008FD660008F0B514006B
:1041E0000A6923690D008BB09A4202DB23000C00A0
:1041F0001D0027692E696168BB190393A368BA196A
:10420000934200DA0131FFF785FE0290002806D1C3
:10421000B121494B4948029A490000F01BFF029B1B
:10422000002214339C46BB199B00634404936346ED
:1042300004998B422AD32300BF001433143508930A
:10424000B600DB190593AB190993042306932300E9
:10425000059A153301959A4205D3131B153B9B080C
:1042600001339B000693019B099A934210D3039B51
:10427000002B05DD049B043B04931B68002B56D0E8
:10428000029B039A18001A610BB0F0BD04C3CFE77C
:10429000019B186880B200281ED067460025089E42
:1042A00002CE3B6807938BB243431A006B46090C5E
:1042B0009B8B4143D318079A5B19120C89181A0C6F
:1042C0008A189BB2150C12041A43059B04C7B3420B
:1042D000E6D86346069A9D50019B1868000C20D0D2
:1042E00063462500614600271B6814352A680E685E
:1042F00092B24243360C9219D21916049BB21E4355
:104300000E6040CD4B68360C46439BB2120CF3183E
:104310009B18059A1F0C0431AA42E7D862460699F9
:104320005350019B0433019304239C449BE7039B5C
:10433000013B03939BE7C046FD6600080E6700083B
:10434000F7B50323150007000E001A401D4208D0E0
:104350002549013A9200525800233100FFF742FEEE
:104360000600AD103DD0FC69002C0FD11020FFF7E6
:1043700011FD021EF86105D1B4211C4B1C48FF3110
:1043800000F068FE446084600460C460FB699C685F
:104390000193002C08D138001649FFF707FF019B55
:1043A000040098600023036001231D420AD03100FD
:1043B00022003800FFF712FF310001903800FFF7AC
:1043C000EDFD019E6D100CD02068002807D1220061
:1043D00021003800FFF702FF002320600360040083
:1043E000E2E73000FEBDC046686700088D66000841
:1043F0000E67000871020000F0B50C00160023697A
:10440000571185B0FB180193013300934968A368E5
:104410000290009A934210DB0298FFF77BFD002385
:10442000010005001A00143198420CD1EF212A0036
:10443000254B2648490000F00DFE01315B00E8E7FE
:1044400098000A500133BB42FADBFB43DB171F40E5
:10445000BF0023001F20C9193700226914339200BE
:104460009A180740064229D00130C01B03908C46A1
:1044700000201E68BE400643604640C08446039E3E
:1044800001CBF0409A42F4D8260015360423B242FC
:1044900004D3131B153B9B0801339B00C850002815
:1044A00002D0019B02330093009B0298013B210044
:1044B0002B61FFF773FD280005B0F0BD01CB01C1F2
:1044C0009A42FBD8F0E7C046FD6600080E67000878
:1044D00030B50B6904690200E01A9C420FD1143216
:1044E0009B0014311400C918D218043A0439156815
:1044F0000B689D4204D001209D4200D2023830BD9D
:104500009442F2D3FBE70000F0B50C0087B00090B6
:10451000110020001700FFF7DBFF051E10D101007E
:104520000098FFF7F7FC021E04D1404B4048414978
:1045300000F090FD012345610361100007B0F0BD5C
:104540000026B04203DA23003C001F0001366168F8
:104550000098FFF7DFFC021E03D1344B3448364984
:10456000E6E72369143400939B00E31821000194CB
:104570003C0002933B6914349B00E318039303004F
:10458000C6608C460020143304930593634620CB09
:10459000A9B20E009C4608CC2D0C99B2711A0918CC
:1045A0001B0C0814EB1A1B18181489B21B041943AE
:1045B000059B02C30593039BA342E7D83900039CE4
:1045C000153104238C4204D3E31B153B9B080133B4
:1045D0009B000199CD1804992E00CB181F00029959
:1045E0008E4211D3029CE91E00208C4204D321008C
:1045F0000331491B890888001B18043B19680029EE
:1046000010D0009B136198E7844602CE88B26044C4
:1046100000140C0C04196144201489B224042143B1
:1046200002C7DCE7009901390091E6E7FD66000862
:104630000E670008370200004502000010B5002494
:104640000C4B0D4A0B409B18A34206DC5B421A152B
:10465000132A05DC80231B0313411900200010BD21
:10466000143A01241E2A02DC80242406D4400023AC
:10467000F3E7C0460000F07F0000C0FCF7B506007D
:10468000036914369B00F3181D1F2C680F002000CF
:104690000193FFF737FD2022121A3A6003001C4AEB
:1046A0000A2815DC0B212700091ACF403A438C4613
:1046B00011000022AE4202D2019A083A1268153364
:1046C0009C4063462700DA401743380003B0F0BD32
:1046D0000027AE4202D2019D083D2F680B214942BE
:1046E0008C469C440B2B10D0614620238C405B1AD7
:1046F0003900D9400C43224311000022B54201D9B0
:10470000043D2A686446A740DDE722431100DCE748
:104710000000F03FF7B5012116001F00FFF7FAFB7C
:10472000041E05D12200254B2548264900F092FCA5
:104730003B037D001B0B6D0D02D0802252031343FF
:104740000193002E25D068460096FFF701FD019BDE
:10475000009900281BD020221E00121A9640320019
:10476000C3400A4362610193019EA661731E9E418C
:1047700001362661002D14D03526134BED18089B09
:104780002D181D60099B361A1E602000FEBD616158
:10479000EAE701A8FFF7DCFC019B012663612030FA
:1047A000E7E70A4BC018089B1860094BF3189B00F9
:1047B000E3185869FFF7A6FC7601E3E7FD660008F9
:1047C0000E6700080F030000CDFBFFFFCEFBFFFFCD
:1047D000FFFFFF3FF0B587B00F0004A90600FFF709
:1047E0004DFF00900191009B019C380005A90293A8
:1047F0000394FFF743FF0D0002000B003069396995
:10480000049E401A05994001711A411808050029B3
:1048100008DD01994118039102980399FCF782FB86
:1048200007B0F0BD2B1AF7E710B50400172805DC18
:10483000074BC4001B191868596810BD00200549B2
:104840000022054B013CFCF789FE002CF8D1F4E76F
:10485000C86700080000F03F0000244070B5140055
:1048600005000139136949110131890014349B0095
:104870004118E318A3420DD81400113400259C42BE
:1048800003D89B1A113B9B089D00002340198142CD
:1048900003D870BD40CC40C5ECE708C0F7E7020084
:1048A000006910B514324B11984213DB0CDD1F2444
:1048B00008002040214207D099008C582100C140B7
:1048C000814001208C4204D19B00D318934203D82D
:1048D000002010BD0300F7E7043B19680029F5D05C
:1048E0000120F6E7936810B5013B9360002B04DAD2
:1048F0009469A34207DB0A2905D01368581C10608D
:104900001970080010BDFEF7EFF90100F9E7F8B5DE
:1049100006000F001400D518AC4201D1002007E0BA
:1049200021783A003000FFF7DDFF0134431CF3D15A
:10493000F8BD002310B5140092689A4205D02200F9
:1049400000F030F900220300A2600022180062602B
:1049500010BD0000F0B5A1B00F0015001E000390BF
:10496000002804D0036A002B01D1FEF7A3F87B6E68
:10497000DB0705D4BB899B0502D4B86DFEF7C3FAEB
:10498000BB891B0702D53B69002B13D13900039863
:10499000FEF7F6F900280DD07B6EDB0703D501206A
:1049A000404221B0F0BDBB899B05F8D4B86DFEF73D
:1049B000B0FAF4E7002308AC636120336376103368
:1049C000A37607962E003378002B01D0252B48D1F3
:1049D000731B0593AE420BD02A0039000398FFF7F2
:1049E00096FF013000D1AEE06369059A9B186361C0
:1049F0003378002B00D1A6E00122002352426260EE
:104A000004A954325218751C2360E360A36013702C
:104A1000A365594B0522180029780593FEF77AFA09
:104A20006E1C00281FD12268D30604D5532304A985
:104A30005B1820211970130704D5532304A95B18B0
:104A40002B2119702B782A2B16D02E0000210A203A
:104A5000E3683278751C303A092A50D9002911D1FF
:104A600017E00136AFE7059B2268C01A0123834097
:104A7000134335002360CCE7079B191D1B68079182
:104A8000002B01DB0B9304E05B42E3600223134342
:104A9000236033782E2B0CD173782A2B34D1079BCB
:104AA00002361A1D1B680792002B01DA01235B42B4
:104AB0000993324D032228003178FEF72BFA0028A3
:104AC00006D04023401B83402268013613432360F5
:104AD000317806222A48751C2176FEF71BFA002839
:104AE00040D0284B002B22D10722079B073393434A
:104AF000083307936369049A9B18636162E7434331
:104B00002E0001219B18A4E700230A20190001367A
:104B100063603278751C303A092A03D9002BC8D05B
:104B20000991C6E741432E0001238918F1E707AA3E
:104B3000009221003A00144B0398FDF729FA0490E3
:104B4000049B0133D6D17B6EDB0705D4BB899B0563
:104B500002D4B86DFEF7DDF9BB895B0600D51EE710
:104B60000D981EE707AA009221003A00064B039811
:104B7000FDF7B8FCE3E7C0469068000896680008B7
:104B80009A680008911F00080F49000810B5044CEE
:104B900013000A0001002068FFF7DCFE10BDC046CC
:104BA00010000020F0B5936887B00C0002900492CA
:104BB000002B02D1002007B0F0BD8B891B074CD51C
:104BC0000B69002B49D0049B1B6801930C22A35E48
:104BD00002221E001640134265D1012201211A4013
:104BE0000B4200D198E0300037000396002F00D12F
:104BF00000E1002800D106E10596BE4200D90597E4
:104C000020682269A5686369904200D808E1059A86
:104C1000ED18AA4200DC03E103992A0000F08BF9A9
:104C2000236821005B1902982360FDF703FE00282A
:104C30006DD10120761B05D121000298FDF7FAFD08
:104C4000002864D1039B049A5B190393049B7F1B88
:104C50009B685B1B9360C9D1ACE721000298FEF70B
:104C60008FF80028AFD001204042A4E7019B1E68C6
:104C70005D6808330193A76A216A002DF6D0754A52
:104C80002B00954200D9130032000298B847002843
:104C90003DDD049B049A9B6836181B1A2D1A9360FD
:104CA000002BE8D186E700263500E4E7019B1B686E
:104CB0000393019B5D68083301930C22A35E206877
:104CC000A668002DF2D080229200134262D0AE423C
:104CD00037D89022D200134233D02169421A0320E0
:104CE000059262694243D70FBF18059A7F100132BF
:104CF0005219BA4200D917005B053CD53900029819
:104D0000FFF77EF8061E0AD10C23029A1360402397
:104D1000A2891343A381A6E715000392CDE7059A64
:104D2000216900F08DF9A2894B4B1A40802313436F
:104D3000A381059B2661F61826602E006761FF1A85
:104D4000A7602F00AE4200D92E00320003992068E0
:104D500000F0F1F8A3689B1BA36023689B192360F4
:104D6000039B049ADB190393049BED1B9B68DB1BDD
:104D70009360A2D11EE73A00029800F0D7F9061E10
:104D8000D7D121690298FEF7BBFF8022A389934304
:104D9000A381B9E72369834202D36769AF4216D979
:104DA000AE4200D92E003200039900F0C4F8A36887
:104DB00022689B1B92193700A3602260002BCFD181
:104DC00021000298FDF736FD0028C9D09FE7802317
:104DD00028001B069D4200D320483900FBF7B6FF90
:104DE0003B00A66A4343039A216A0298B047071E14
:104DF000B6DC8CE7019B1A005F6808320192002F35
:104E0000F8D01B6803933A000A210398FEF782F852
:104E10007E1C002800D1EFE6039B0130C61AEBE6AA
:104E2000059A934208DCA56A039A216A0298A8476A
:104E3000051E00DDFDE66AE7059A039900F07BF8A0
:104E4000059AA36815009B1AA36023689B1823602A
:104E5000EFE6C04600FCFF7F7FFBFFFFFFFFFF7F09
:104E600070B50E001D000E23C95E140096B0002917
:104E70000CDAB2898023110019401A4214D1802320
:104E8000DB0000202960236016B070BD6A4600F088
:104E900097F80028EDDBF02301991B021940044B21
:104EA000C9184B425941EAE700214023E9E7C046CF
:104EB00000E0FFFFF0B502268B8905000C0085B0ED
:104EC000334207D02300473323602361012363610A
:104ED00005B0F0BD03AB02AAFFF7C2FF029F01902D
:104EE00039002800FEF78CFF002808D10C22A35EB1
:104EF0009A05EDD4032293431E43A681E2E7802363
:104F0000A28920601343A381039B20616761002B6A
:104F10000CD028000E23E15E00F064F8002805D0D4
:104F20000323A2899A43023B1343A381A389019AD5
:104F30001343A381CCE710B5884206D800239A42D8
:104F400008D0CC5CC4540133F9E78B189842F5D2F1
:104F5000013A00D210BD8B5C8354F9E770B5141E82
:104F60000B4D05D010000B4900F060F8002801D16E
:104F7000280070BD2900200000F058F80028F7D064
:104F80002000054900F052F80028F1D00020F0E799
:104F9000A1680008A3680008E66800089422024B94
:104FA0005200985C7047C0466000002010B5034B6B
:104FB0000A0001001868FFF7D1FF10BD10000020A3
:104FC000002370B5064D0400080011002B60FBF7AC
:104FD0009BFD431C03D12B68002B00D0236070BDC8
:104FE00078020020002370B5064D040008002B60F5
:104FF000FBF700FE431C03D12B68002B00D023607D
:1050000070BDC04678020020002370B5064D040034
:1050100008002B60FBF702FE431C03D12B68002B1A
:1050200000D0236070BDC0467802002002780B7863
:10503000002A03D0013001319A42F7D0D01A7047CC
:10504000002310B59A4200D110BDCC5CC45401338A
:10505000F8E700007FB514001A00094B05001B6833
:105060000E00D868074B002C01D1074B1C000749E4
:10507000019302942B00009600F0A8F800F0B6F817
:1050800010000020AB680008E6680008B868000857
:10509000130010B50022FFF7DDFF70B50B0C150CE7
:1050A000002B1ED1002D0CD189B294B24C432100AB
:1050B000FEF7A6FE051E1AD022000021FDF7BEFE57
:1050C00016E02B1C0C1C89B292B24A439BB2A1B2CF
:1050D0005943140C0C19230C07D1240492B2144325
:1050E000E5E7002D01D1141CEDE70C23036000253A
:1050F000280070BD37B5069D024C00952468A04776
:105100003EBDC0464401002082B0002900D101A963
:10511000101E06D0002B06D013780B601078431EAB
:10512000984102B0704702204042FAE7F7B5060006
:105130000C001500002905D11100FEF761FE0400E6
:105140002000FEBD002A03D1FEF7DAFD0024F7E7B8
:1051500000F053F80700854202D84308AB42EFD372
:1051600029003000FEF74CFE01900028EED02A0006
:10517000BD4200D93A0021000198FFF761FF2100EC
:105180003000FEF7BDFD019CDAE7000010B5024CCF
:105190002468A04710BDC046400100200300081E3F
:1051A00005D0FF2A04D98A2201201A6040427047A4
:1051B00001200A70FBE70CB407B504AB04CB0193E4
:1051C000FFF7C8FB03B008BC02B018470EB417B510
:1051D000054C05AB04CB010020680193FFF7BAFB37
:1051E0001EBC08BC03B0184710000020062010B5F4
:1051F00000F086F80120FBF75BFC0B1F1B68181FF3
:10520000002B01DA0B58C018704770B5C46B05004D
:10521000002C0AD18021FEF7F3FDE863002806D0B8
:105220000300803310C09842FCD1002070BD0120E3
:105230004042FBE770B504000D0016001F2904D999
:10524000162303600120404207E0C36B002B05D00A
:10525000E36BAD005D1928682E6070BDFFF7D5FFC8
:105260000028F5D0EEE770B504000D001F2904D921
:10527000162303600120404270BDC36B002B04D095
:105280008A009B181A68002A08D1200000F070F8E4
:105290002A000100200000F059F8EDE7012A09D0AA
:1052A000511C03D1162303600120E5E700212800EB
:1052B000196090470020DFE770B504000D001F293A
:1052C00002D90120404270BDC36B002B12D0E26BAB
:1052D000AB00D21813680120002BF4D00220591C17
:1052E000F1D00130012BEED0002428001460984743
:1052F0002000E8E7FFF789FF0028E8D0E1E7000099
:1053000010B5034B01001868FFF7ADFF10BDC04694
:105310001000002010B5034B0A0001001868FFF7C9
:1053200089FF10BD1000002010B5024B1868FFF770
:105330006CFF10BD1000002010B5034B0100186871
:10534000FFF7BAFF10BDC04610000020002370B563
:10535000064D0400080011002B60FBF7E9FB431C1D
:1053600003D12B68002B00D0236070BD7802002091
:1053700010B5FBF7D7FB10BD02B4714649084900D0
:10538000095C49008E4402BC7047C04603B47146B4
:10539000490840004900095E49008E4403BC70473B
:1053A0008446100062468C461900634600E0C04601
:1053B0001FB500F049FC002801D40021C8421FBDE0
:1053C00010B500F089FB4042013010BD10B500F06F
:1053D0003BFC002801DB002010BD012010BDC046B1
:1053E00010B500F031FC002801DD002010BD0120C7
:1053F00010BDC04610B500F0B3FB002801DC002052
:1054000010BD012010BDC04610B500F0A9FB00285A
:1054100001DA002010BD012010BDC046F0B557468E
:105420004E464546DE46E0B583B0009001910C0340
:105430004F00CE0F610A009C1D03640F0C430099BE
:1054400000920193C80059004B0D9946009A019BA8
:105450006D0AD90F530F2B439A46009B7F0DDA003C
:1054600094464A46B046BA1A8E4200D1B0E0002AAD
:1054700000DC78E04946002900D1E9E0C8498F42C4
:1054800000D193E10125382A16DC80215346090416
:105490000B439A461F2A00DDE5E1202155468B1A71
:1054A00061469D40D1400D43614699404B1E994154
:1054B0005346D3400D43E41A451BA8428041404265
:1054C000241A230200D40EE16402640A002C00D1E5
:1054D00038E12000FCF794FC0300083B2021280061
:1054E000CA1AD0409C4002009D4022439F4200DDEA
:1054F00071E1D81B0130091A2C008D40C4406B1E8D
:105500009D411300C2408B402543002714001D43DA
:105510006B0709D00F232B40042B05D02B1DAB426A
:10552000AD416D4264191D00230200D42CE19C4A58
:105530000137974200D1D2E046469A49EA08214015
:1055400048074D027C0502432D0B640D24052C43B6
:10555000F60734431000210003B0F0BCBB46B2464E
:10556000A946A046F0BD002A00D184E04A46D21BDD
:10557000002F00D06BE12500054300D125E1561E28
:10558000012A00D136E2864DAA4200D1F6E101257A
:10559000382E12DC32001F2A00DDFEE12026250015
:1055A000B61A07005346B040D440B540D740461E17
:1055B000B0411B1B9A463D4305436246551BAC4513
:1055C0009241534652420E004F4688469C1A78E755
:1055D000002A00DC8DE04946002974D1614653461B
:1055E000194300D1F4E0511E012A00D191E16C4D24
:1055F000AA4200D1DAE00125382914DC0A001F2A6A
:1056000000DDA2E120215346891A8B401D0063462C
:10561000D3401D4363468B4019004B1E99415346AE
:10562000D3400D43E4182D18854280414042241890
:10563000230258D55A4B01379F4250D00121594B74
:105640006A081C4029400A43E507154364085FE7E0
:1056500061465346194300D1BAE0511E012A00D1D8
:1056600064E14F4DAA4200D16AE10125382900DDED
:1056700022E70A000EE74C4A7D1C154200D0CEE01E
:1056800022000243002F00D037E1002A00D1BDE103
:10569000624653461A4300D16BE16346C51A53462E
:1056A000E21AA8429B415B42D31A1A0200D4F7E1E6
:1056B00063461D1AAC459241534652421C1B0E00D4
:1056C0008846A41A24E736498F426FD00125382A2C
:1056D000A9DC8021534609040B439A468FE73C001E
:1056E0000025002232E707232B40002B00D011E7D2
:1056F00092E0002A73D04A46D21B002F00D1C6E0A8
:105700002749894500D141E10125382A12DC802151
:1057100009040C431F2A00DDA7E120212500891A76
:10572000070088408D40D740411E8841D4403D430A
:105730000543A244654465459241524252441400D7
:105740004F4675E72800FCF75BFB030018331F2B5F
:1057500000DCC3E62A00083882409F4200DDA7E053
:10576000DB1B581C1F2800DCA8E115001F3BDD4097
:10577000202805D040231B1A9A40531E9A411543F6
:10578000072300272B40B0E7ED08054B62072A43AB
:10579000E4089F420ED02403250B7C05640DD5E65A
:1057A000FF070000FFFF7FFFFE070000C008620741
:1057B0000243E4081300234300D183E180252D0335
:1057C00025432D03C14C2D0BC0E6604654460E0008
:1057D0001700C508D9E7BE4CFF1A144098E6BD4A29
:1057E000791C11426AD122000243002F00D0E3E06D
:1057F000002A00D132E1624653461A4300D1B8E094
:105800006346C5188542804154444042241823020F
:1058100002D50F00AE4B1C403A002800D8E7624684
:10582000851AA8429241534652429146E31A1A0001
:105830004B46D21A130091461A0253D44A464C469C
:105840002A4300D042E60026002400257EE69F4D34
:10585000A94500D192E00125382A00DDADE680257A
:105860002D042C4397E6110055462039CD40A9461A
:10587000202A06D0402153468A1A934062461A4392
:10588000944665466B1E9D414B461D4314E6210020
:10589000014300D1C7E0511E012A00D1F8E08B4D31
:1058A000AA4273D00125382900DD43E70A0031E719
:1058B000874CFF1A14406207E4086CE7834A914260
:1058C00000D1E1E06346C218824280412300404299
:1058D00053441B18DD075C080723520815430F00CB
:1058E0002B4002E763461D1AAC4592415346524293
:1058F0001C1B0E008846A41AE8E5002A00D095E09B
:10590000624653461A4300D0D0E080240026240388
:1059100054E76346C51885428041544440422418E8
:105920000127230200D4DEE6022787E66346C51A74
:10593000A842804153464042E41A0127241AC0E598
:105940006307C2081A43E40834E7110053462039BC
:10595000CB409946202A06D0402153468A1A9340CC
:1059600062461A43944665466B1E9D414B461D4355
:1059700059E66207C0080243E4080CE76346DA0808
:10598000534658070E000243DC0813E76346DA0863
:10599000534658070243DC080CE715002600203D5B
:1059A000EE40202A03D04025AA1A94402043421EEC
:1059B00090410500354300E6002AE7D06246534691
:1059C000C0081A4300D1F2E6620710438022E408BF
:1059D0001203144208D0D908114205D16346D808F1
:1059E00053460C005B071843430FC000C2085B0717
:1059F0001A43DFE663461D1AAC45924153465242B4
:105A00001C1B0E008846A41A01375AE5624653460D
:105A10001A4300D117E76346DA08534658070E00C9
:105A20000243DC08B7E660465446D1E66246534678
:105A3000C0081A4300D1BAE6620710438022E40886
:105A400012031442D0D0DD081542CDD16346D808E8
:105A500053465B070E002C001843C5E76346DA087F
:105A6000534658070243DC0895E611002700203909
:105A7000CF40202A03D040218A1A94402043421E5E
:105A8000904105003D4355E60C00002500225DE5F0
:105A9000604460459241544452420500A4183FE7D7
:105AA0001A001C002A4300D0B6E6CCE6580763462D
:105AB000DA0853460E000243DC087BE6202100256D
:105AC000091A1EE500220025004C3FE5FF070000F3
:105AD000FFFF7FFFFE070000F0B55746DE464E464B
