:020000040800F2
:1000000000200020B9000008F1090008050A0008D6
:1000100000000000000000000000000000000000E0
:10002000000000000000000000000000F1090008CE
:100030000000000000000000F1090008F1090008BC
:10004000F1090008F1090008F1090008F1090008A8
:10005000F1090008F1090008F1090008F109000898
:1000600000000000F1090008F1090008F10900088A
:10007000F1090008F1090008000000003B01000838
:1000800000000000F109000800000000000000006E
:10009000F109000800000000F1090008F10900085A
:1000A000F1090008F1090008F1090008210500081C
:1000B000F1090008F109000800F016FC00F0D8FB77
:1000C000E1235B02180000F083F962B6C04600F03D
:1000D000C5F8024B180000F0EBFAFEE7041A00081E
:1000E00080B500AF0A4B0B4A5A60094B00229A6058
:1000F000074B05221A60C046054B1A6880235B0235
:100100001340F9D0024B00221A60C046BD4680BDA4
:1001100010E000E0FF7C000080B582B000AF7860A6
:1001200001E0FFF7DDFF7B685A1E7A60002BF8D1F3
:10013000C046C046BD4602B080BD80B500AF80233A
:10014000DB051A698023DB0501218A431A61A0239C
:10015000DB055A69A023DB05802109014A405A6169
:10016000A023DB055A69A023DB05802149014A4011
:100170005A61C046BD4680BD80B500AF304BDA6ADB
:100180002F4B01210A43DA62A023DB051B682D4AAD
:100190001A40A023DB058021C9030A431A60A0236B
:1001A000DB055A68A023DB0527490A405A60A023D3
:1001B000DB051B68254A1A40A023DB058021490482
:1001C0000A431A60A023DB055A68A023DB052049F7
:1001D0000A405A601A4B9A6B194B01210A439A63E1
:1001E0008023DB051B4ADA621B4B1A681A4B8021FD
:1001F00009020A431A608023DB051A688023DB05A5
:1002000010210A431A608023DB051A688023DB056E
:1002100080210A431A608023DB05DA688023DB052E
:1002200001210A43DA608023DB051A688023DB059D
:1002300001210A431A6062B6C046C046BD4680BD71
:1002400000100240FFFF3FFFFFF7FFFFFFFFFFFC33
:10025000FFEFFFFFE603000000E100E080B588B09B
:1002600000AFFFF789FFA023DB055A69A023DB0558
:10027000802109010A435A61A023DB055A69A023A2
:10028000DB050A490A405A61FA235B001800FFF7B0
:1002900043FF074B180000F04FFE064B180000F01C
:1002A0004BFE054B180000F047FEFEE7FFEFFFFF97
:1002B0006C190008A8190008D819000890B585B075
:1002C00000AF78603960184B1B68002B02D1012306
:1002D0005B4224E00023FB600AE0FB685A1CFA60E2
:1002E0003A68D418114B180000F0ADF903002370E0
:1002F0007B68013B1A00FB68934205D20B4B180048
:1003000000F0CCF9031EE8D1FB68002B06D03A6858
:10031000FB68D31800221A70FB6800E00023180065
:10032000BD4605B090BDC046000100206800002019
:1003300080B584B000AF78603960224B1B68002B19
:1003400002D101235B4238E07B683F2B0BDCC046C7
:100350001D4B180000F0A2F903004022D21A7B685E
:100360009A42F5D302E002235B4226E00023FB60C1
:100370000BE03A68FB68D3181A78134B1100180089
:1003800000F030F9FB680133FB607B68FA689A4241
:10039000EFD30E4B1B68082213400DD10B4B1A688C
:1003A0000A4B08210A431A60074B180000F04BF96A
:1003B00003001A00054B9A6200231800BD4604B0E2
:1003C00080BDC04600010020B4000020003801407C
:1003D00080B584B000AF786072B6C046454B00224D
:1003E0009A64444B9A6C434B5A64424B5A6C414B4F
:1003F0001A64414B00229A643F4B9A6C3E4B5A64FC
:100400003D4B5A6C3C4B1A643C4B01221A603C4BEE
:1004100000221A603B4BDA6A3A4B01210A43DA6246
:10042000394BFB607968F86800F044FC0300FB601E
:10043000A023DB059A68A023DB058021C9020A43BB
:100440009A60A023DB055A68A023DB052F490A40E8
:100450005A60A023DB051B682D4A1A40A023DB0548
:10046000802109030A431A60A023DB055A6AA023EE
:10047000DB0540210A435A62A023DB051B68254A9D
:100480001A40A023DB05802189030A431A60A023B8
:10049000DB055A6AA023DB058021C9000A435A62A2
:1004A000184B5A6B174B8021C9010A435A631A4BE8
:1004B0001A68194B6C210A431A60174B00225A60C4
:1004C000154B00229A60144BFA68DA60124B1A68D6
:1004D000114B01210A431A60104B1A680F4B8021FF
:1004E00009050A431A6062B6C046C046BD4604B05C
:1004F00080BDC04668000020B4000020000100203C
:1005000004010020001002400048E801FFFDFFFF49
:10051000FFFFF3FFFFFFCFFF0038014000E100E0E5
:1005200080B500AF084BDB698022134001D000F09A
:1005300025F8054BDB692022134001D000F006F8B6
:10054000C046BD4680BDC0460038014080B500AF02
:10055000074B5B6ADAB2074B1100180000F042F853
:10056000031E02D0044B01221A60C046BD4680BD66
:1005700000380140680000200401002080B500AF71
:10058000164B180000F08AF8031E08D0134B180011
:1005900000F059F803001A00114B9A621BE0104B4F
:1005A0001A680F4B08218A431A600D4BDB69402201
:1005B000134005D00A4B1A6A094B40210A431A62BC
:1005C000074BDB698022134005D0054B9A69044B29
:1005D00010210A439A61C046BD4680BDB400002088
:1005E0000038014080B582B000AF78600A00FB1C83
:1005F0001A707B681A6C7B685B6C9A4205D17B68C9
:100600009B6C002B01D0012319E072B6C0467B68B9
:100610001B6C591C7A6811647A68F91C0978D154EA
:100620007B689B6C5A1C7B689A647B681B6C402BB4
:1006300002D17B6800221A6462B6C046002318000B
:10064000BD4602B080BD80B584B000AF78607B68E5
:100650009B6C002B01D100231CE072B6C0467B6866
:100660005B6C591C7A6851640F22BA187968CB5CAC
:1006700013707B685B6C402B02D17B6800225A644C
:100680007B689B6C5A1E7B689A6462B6C0460F23D7
:10069000FB181B781800BD4604B080BD80B582B041
:1006A00000AF78607B689B6C1800BD4602B080BDCF
:1006B00080B582B000AF78600B4B1B68002B09D16E
:1006C00001235B420BE07B685A1C7A601900012011
:1006D000FFF72EFE7B681B78002BF4D10023180057
:1006E000BD4602B080BDC0460001002080B582B08A
:1006F00000AF0200FB1D1A70FB1D19000120FFF75F
:1007000017FEC046BD4602B080BD80B500AF044BA9
:100710001800FFF798FF03001800BD4680BDC046D3
:1007200068000020B0B584B000AF786039601E4B1F
:100730001B68002B02D101235B4231E00023FB60E8
:100740000B23FB1800221A7017E0C046174B180045
:10075000FFF7A4FF031EF9D00B257C19134B1800DB
:10076000FFF771FF03002370FB685A1CFA601A0040
:100770007B689B187A1912781A703B68013BFA68FB
:100780009A4204DA0B23FB181B780D2BDDD1FB6892
:10079000002B04DDFB687A68D31800221A70FB680E
:1007A0001800BD4604B0B0BD000100206800002064
:1007B00090B583B000AFFC1DFFF7A7FF03002370C7
:1007C000FB1D1B781800FFF791FFFB1D1B7818001D
:1007D000BD4603B090BDB0B584B000AF786039605D
:1007E000214B1B68002B02D101235B4237E0002321
:1007F000FB600B23FB1800221A701DE0C0461B4B48
:100800001800FFF74BFF031EF9D00B257C19174B7F
:100810001800FFF718FF030023702C003B191B780A
:100820001800FFF763FFFB685A1CFA601A007B6828
:100830009B183A1912781A703B68013BFA689A4281
:1008400004DA0B23FB181B780D2BD7D1FB68002B88
:1008500004DDFB687A68D31800221A70FB68180060
:10086000BD4604B0B0BDC0460001002068000020B5
:1008700080B582B000AF164B7B60164B3B6007E043
:100880007A68131D7B603B68191D396012681A6015
:100890003A68114B9A42F3D304E03B681A1D3A6060
:1008A00000221A603A680D4B9A42F6D30C4B3B601B
:1008B00004E03B681A1D3A601B6898473A68094B88
:1008C0009A42F6D3C046C046BD4602B080BDC0467F
:1008D000801A00080000002064000020640200204C
:1008E000801A0008801A000880B500AF3B4B1A68D8
:1008F0003A4B01210A431A60C046384B1B68042258
:100900001340FAD0354B0122DA60C046334BDB6826
:100910000C221340042BF9D1314B1A68304B0221C1
:100920000A431A602E4B1A682D4B01210A431A60A4
:100930002A4B9A6B294B802149050A439A63294B1C
:10094000802212011A60C046264B5B6810221340B9
:10095000FAD1224BDA68214B23490A40DA601F4B57
:10096000DA681E4B8821C9030A43DA601B4A1B4B15
:10097000D268DA60194A194BD268DA60174A174B05
:10098000D268DA60154B1A68144B18490A401A608D
:10099000124B1A68114B802149040A431A60C04661
:1009A0000E4B1A6880239B041340F9D00B4BDA6876
:1009B0000A4B03218A43DA60084BDA68074B0321AC
:1009C0000A43DA60C046054BDB680C2213400C2B4F
:1009D000F9D1C046C046BD4680BDC04600100240A9
:1009E0000020024000700040FFFF02FFFFFFFFFEFB
:1009F00080B500AF024B1800FFF75AFEFEE7C04675
:100A00002C1A000880B500AF024B1800FFF750FE0B
:100A1000FEE7C0465C1A000880B582B000AF78607F
:100A2000FEE780B582B000AF786001235B4218001A
:100A3000BD4602B080BD80B584B000AFF860B9603B
:100A40007A60044B0C221A6001235B421800BD46F9
:100A500004B080BD1401002080B500AF034B0B2211
:100A60001A6001235B421800BD4680BD14010020BE
:100A700080B582B000AF786039603B688022920117
:100A80005A6000231800BD4602B080BD80B500AF9B
:100A900001231800BD4680BD80B582B000AF7860EC
:100AA0003960044B16221A6001235B421800BD46D0
:100AB00002B080BD1401002080B582B000AF786024
:100AC0003960044B1F221A6001235B421800BD46A7
:100AD00002B080BD1401002080B584B000AFF86082
:100AE000B9607A6000231800BD4604B080BD80B5AF
:100AF00082B000AF786039603B68802292015A6012
:100B000000231800BD4602B080BD80B582B000AFA2
:100B1000786001235B421800BD4602B080BD80B5FD
:100B200082B000AF7860044B02221A6001235B425E
:100B30001800BD4602B080BD1401002080B582B00F
:100B400000AF7860044B0A221A6001235B42180050
:100B5000BD4602B080BDC0461401002080B582B001
:100B600000AF78607B68022B01D8012303E0044BBF
:100B700009221A6000231800BD4602B080BDC0469D
:100B80001401002080B586B000AF7860124B7B6105
:100B9000124B3B61124B1B68002B02D1104B7A6940
:100BA0001A600F4B1B68FB600D4B1A687B68D318EB
:100BB0003A699A4205D20B4B0C221A6001235B4220
:100BC00006E0074B1A687B68D218054B1A60FB6871
:100BD0001800BD4606B080BD640200200010002051
:100BE000100100201401002080B588B000AFF8602B
:100BF000B9607A600023BB61FB68002B22D100231F
:100C0000FB611AE0FFF781FD03001A0017217B1832
:100C10001A70BB685A1CBA607A181278D2B21A706D
:100C2000BB690133BB617B181B78DBB20A2B01D196
:100C3000BB690EE0FB690133FB61FA697B689A428C
:100C4000E0DB05E0054B09221A6001235B4200E06E
:100C5000BB691800BD4608B080BDC0461401002025
:100C600080B586B000AFF860B9607A60FB68013B80
:100C7000012B11D800237B6109E0BB685A1CBA60C4
:100C80001B781800FFF732FD7B6901337B617A69BD
:100C90007B689A42F1DB05E0054B09221A600123CB
:100CA0005B4200E07B681800BD4606B080BDC046D0
:100CB0001401002003460B437FD4002243088B42DB
:100CC00074D303098B425FD3030A8B4244D3030BD3
:100CD0008B4228D3030C8B420DD3FF22090212BA98
:100CE000030C8B4202D31212090265D0030B8B4214
:100CF00019D300E0090AC30B8B4201D3CB03C01AFE
:100D00005241830B8B4201D38B03C01A5241430BD8
:100D10008B4201D34B03C01A5241030B8B4201D3C8
:100D20000B03C01A5241C30A8B4201D3CB02C01A33
:100D30005241830A8B4201D38B02C01A5241430AAB
:100D40008B4201D34B02C01A5241030A8B4201D39A
:100D50000B02C01A5241CDD2C3098B4201D3CB0141
:100D6000C01A524183098B4201D38B01C01A5241F0
:100D700043098B4201D34B01C01A524103098B42F4
:100D800001D30B01C01A5241C3088B4201D3CB00DF
:100D9000C01A524183088B4201D38B00C01A5241C2
:100DA00043088B4201D34B00C01A5241411A00D272
:100DB00001465241104670475DE0CA0F00D04942DB
:100DC000031000D34042534000229C4603098B424B
:100DD0002DD3030A8B4212D3FC22890112BA030AD3
:100DE0008B420CD3890192118B4208D38901921155
:100DF0008B4204D389013AD0921100E08909C309DA
:100E00008B4201D3CB01C01A524183098B4201D3DB
:100E10008B01C01A524143098B4201D34B01C01AC6
:100E2000524103098B4201D30B01C01A5241C3083E
:100E30008B4201D3CB00C01A524183088B4201D3AD
:100E40008B00C01A5241D9D243088B4201D34B00C8
:100E5000C01A5241411A00D20146634652415B100A
:100E6000104601D34042002B00D5494270476346EB
:100E70005B1000D3404201B5002000F005F802BD30
:100E80000029F8D016E770477047C046036A70B56E
:100E900005000E008468002B01D100F0D1FB636EC9
:100EA000DB0705D4A3899B0502D4A06D00F0FDF8F3
:100EB000A3891B0702D52369002B1AD12100280022
:100EC00000F090F8002814D001256D42636EDB0716
:100ED00005D4A3899B0502D4A06D00F0ECF828008E
:100EE00070BD0136A360002B14DB23685A1C2260FE
:100EF0001970A3683178013B0029F2D1A360002B5F
:100F000014DA220028000A3100F020F80130DBD08A
:100F10000A25DBE7A2699A4201DC0A29E5D1220011
:100F2000280000F013F80130E3D1CDE723685A1C04
:100F300022600A221A70EBE710B5034B0100186813
:100F4000FFF7A4FF10BDC04608000020F8B506005A
:100F50000D001400002804D0036A002B01D100F01A
:100F60006FFBA369A360A3891B0702D52369002B2C
:100F700009D12100300000F035F8002803D0012508
:100F80006D422800F8BD23692068EFB2C01A63697A
:100F9000EDB2834205DC2100300000F011FA002898
:100FA000EDD1A3680130013BA36023685A1C226085
:100FB0001F706369834204D0A389DB07E1D50A2D42
:100FC000DFD12100300000F0FBF90028D9D0D6E7AE
:100FD00010B5034B0A0001001868FFF7B7FF10BDFA
:100FE000080000202D4B70B5050018680C00002883
:100FF00004D0036A002B01D100F022FB0C23E25E37
:10100000130723D4D30607D409232B6040230120E0
:101010001343A38140423AE0520713D5616B002984
:1010200008D023004433994202D0280000F044F84D
:10103000002363632422A3899343A3810023636075
:10104000236923600823A2891343A3812369002B0A
:101050000BD1A0218022A389890092000B409342EA
:1010600003D02100280000F065FB0C23E25E012183
:1010700013000B400A420BD00023A36063695B425C
:10108000A36100202369834201D11306BED470BD41
:10109000910700D46369A360F3E7C046080000200D
:1010A000704770477047704770477047012070471E
:1010B000012070477047704770B505000C1E10D0B6
:1010C000043C2368002B00DAE418280000F0DAF86A
:1010D0001D4A1368002B05D163601460280000F0DE
:1010E000D9F870BDA34208D9206821188B42F3D1EA
:1010F00019685B6809182160EEE71A005B68002B2D
:1011000001D0A342F9D911685018A0420BD1206830
:101110000918501811608342E0D118685B684118C3
:1011200011605360DAE7A04202D90C232B60D5E7A7
:10113000206821188B4203D119685B680918216067
:1011400063605460CAE7C0462401002070B50F4EAA
:101150000D0031680400002902D100F0E1FB30608D
:101160002900200000F0DCFB431C03D101256D4267
:10117000280070BD0323C51C9D43A842F8D0291A3E
:10118000200000F0CDFB0130F2D1EFE7200100207C
:101190000323F7B5CD1C9D43083506000C2D34D232
:1011A0000C25A94233D8300000F06CF8344F3B686E
:1011B0001C00002C2FD129003000FFF7C7FF0400CE
:1011C000431C58D13C682100002949D1002C4CD047
:1011D00023683000E318019300F0A2FB019B8342D7
:1011E00043D123683000ED1A2900FFF7AFFF01302B
:1011F0003BD023685B1923603B68002B3DD05A68C5
:10120000A24230D100225A6012E0002DC9DA0C232C
:1012100033600020FEBD2168491B1ED40B2917D95D
:1012200062192560A34211D13A606368116053606E
:10123000300000F02FF8200007220B30231D9043D0
:10124000C21A9842E6D01B1AA350E3E75A60ECE7B3
:101250006268A342D7D13A60EAE723006468A8E74E
:101260000C004968B0E71300C7E70C233000336077
:1012700000F010F8CDE70560DAE75B60FFDEC046FE
:101280002401002010B50248FFF70FFF10BDC04633
:101290001C01002010B50248FFF70DFF10BDC0462D
:1012A0001C010020F7B50C228B5E05000C001A070C
:1012B00061D44A68002A02DC0A6C002A42DDE76A2F
:1012C000002F3FD0002280202E682A601A004001A3
:1012D000216A0240034227D0626DA3895B0706D5CD
:1012E0006368D21A636B002B01D0236CD21A0023DF
:1012F0002800E76A216AB847431C25D000236360B1
:1013000023692360A389DB0400D56065616B2E60CF
:10131000002917D023004433994202D02800FFF758
:10132000CBFE002363630DE001232800B8470200D1
:10133000431CD2D12B68002BCFD01D2B01D0162BF4
:1013400031D12E60002035E02B680C21625E002B2D
:1013500008D01D2B01D0162B0AD10023636023690E
:101360002360D3E7636023692360D204CDD4CDE743
:10137000402313431BE00E69002EE3D00F680E607C
:10138000BA1B019200229B0700D14A69A260019B0F
:10139000002BD7DDA36A32001F002800019B216AC1
:1013A000B847002807DC4023A28913431BB2012061
:1013B000A3814042FEBD019B36181B1A0193E6E74C
:1013C0000B6970B505000C00002B02D10025280028
:1013D00070BD002804D0036A002B01D100F030F961
:1013E0000C22A35E002BF1D0626ED20704D49B05C1
:1013F00002D4A06DFFF759FE28002100FFF752FF2D
:10140000636E0500DB07E2D4A3899B05DFD4A06DE2
:10141000FFF751FEDBE70000010010B5002805D101
:10142000054A0649064800F03FF910BD054B18680B
:10143000FFF7C6FFF9E7C04658000020C1130008B7
:101440000C00002008000020002310B504000360F9
:101450004360836081814366C2810361436183612C
:10146000190008225C3000F0F5F90B4B246263622E
:101470000A4BA3620A4BE3620A4B23630A4B9C426A
:1014800005D00A4B9C4202D0094B9C4203D120005C
:101490005830FFF706FE10BDB9170008E517000821
:1014A0001D1800084918000828010020900100209C
:1014B000F801002010B5034A0349044800F0F4F88D
:1014C00010BDC04658000020C11300080C000020C9
:1014D00041680B4B10B50400994201D0FFF770FF33
:1014E000A168084B994202D02000FFF769FFE1682C
:1014F000054B994202D02000FFF762FF10BDC046A5
:101500002801002090010020F80100204B6E10B54A
:10151000DB0705D48B899B0502D4886DFFF7C5FDD9
:10152000002010BD4B6E10B5DB0705D48B899B05E1
:1015300002D4886DFFF7BFFD002010BD10B5094B28
:10154000094A04211A6009480022FFF77DFF0122A1
:1015500009210748FFF778FF022212210548FFF70B
:1015600073FF10BD60020020B514000828010020A0
:1015700090010020F801002010B50248FFF795FD0A
:1015800010BDC0461F01002010B50248FFF793FDB3
:1015900010BDC0461F010020F8B50700FFF7ECFFA3
:1015A000244B1B68002B01D1FFF7C8FF224EB46803
:1015B0007368013B0FD53568002D38D1D62138002E
:1015C0004900FFF7E5FD041E26D13060FFF7DCFF80
:1015D0000C233B601CE00C22A55E002D1AD12000DC
:1015E000164B5830E3606566FFF75BFDFFF7CCFFF5
:1015F0002000082229002560A560656025616561DD
:10160000A5615C3000F026F96563A563A564E56417
:101610002000F8BD6834CCE70423D0220560436085
:101620000C302900A060520000F014F934603668D4
:10163000BDE7C04660020020580000200100FFFF07
:1016400010B50400FFF798FF236A002B02D0FFF7C4
:101650009BFF10BD044B2362044B1B68002BF6D18B
:10166000FFF76CFFF3E7C046D114000860020020CA
:1016700010B5FFF781FF0020024A034900F014F87B
:1016800010BDC046580000200D15000810B5044AD2
:101690000449002000F008F8FFF776FF10BDC046AF
:1016A0005800002025150008F7B51400002600900A
:1016B0000191A5686768013F04D52468002CF8D122
:1016C0003000FEBDAB89012B08D90E22AB5E013381
:1016D00004D029000098019B984706436835EAE743
:1016E00070B50E001D000E23C95E140096B00029CF
:1016F0000CDAB2898023110019401A4214D18023D8
:10170000DB0000202960236016B070BD6A4600F03F
:10171000BBF80028EDDBF02301991B021940044BB4
:10172000C9184B425941EAE700214023E9E7C04686
:1017300000E0FFFFF0B502268B8905000C0085B0A4
:10174000334207D0230047332360236101236361C1
:1017500005B0F0BD03AB02AAFFF7C2FF029F0190E4
:1017600039002800FFF714FD002808D10C22A35EE1
:101770009A05EDD4032293431E43A681E2E780231A
:10178000A28920601343A381039B20616761002B22
:101790000CD028000E23E15E00F088F8002805D068
:1017A0000323A2899A43023B1343A381A389019A8D
:1017B0001343A381CCE7000070B50C000E25495FF0
:1017C00000F09AF8002803DB636D1B18636570BD99
:1017D000A389024A1340A381F9E7C046FFEFFFFF48
:1017E00000207047F8B51F008B8905000C0016001B
:1017F000DB0505D50E23C95E0022022300F068F840
:10180000A389054A28001340A38132000E23E15E1C
:101810003B0000F097F8F8BDFFEFFFFF70B50C003C
:101820000E25495F00F054F8A389421C03D1054AF4
:101830001340A38170BD802252011343A3816065D0
:10184000F8E7C046FFEFFFFF10B50E23C95E00F0BA
:1018500009F810BD03008218934200D17047197037
:101860000133F9E7002370B5064D040008002B6032
:10187000FFF7D7F8431C03D12B68002B00D023605F
:1018800070BDC04614010020002370B5064D040051
:10189000080011002B60FFF7EBF8431C03D12B6805
:1018A000002B00D0236070BD14010020002370B510
:1018B000064D040008002B60FFF750F9431C03D1CC
:1018C0002B68002B00D0236070BDC046140100209F
:1018D00070B50400080011001A000023054D2B60AC
:1018E000FFF7FAF8431C03D12B68002B00D02360CC
:1018F00070BDC0461401002070B50400080011003E
:101900001A000023054D2B60FFF76EF9431C03D12D
:101910002B68002B00D0236070BDC046140100204E
:10192000002370B5064D040008002B60FFF72AF96C
:10193000431C03D12B68002B00D0236070BDC04630
:101940001401002070B50400080011001A000023E3
:10195000054D2B60FFF784F9431C03D12B68002B46
:1019600000D0236070BDC04614010020536572761C
:101970006F207369676E616C2067656E6572617454
:10198000696F696E207573696E672074686520538E
:10199000544D33324C303531207573696E672054A5
:1019A000494D320D00000000286F75747075747316
:1019B00020617265205041313120616E64205041B8
:1019C00031322C2070696E7320323120616E6420B8
:1019D0003232292E0D0000004279204A657375735A
:1019E0002043616C76696E6F2D46726167612028B5
:1019F000632920323031382D323032332E0D0A0D2A
:101A0000000000000D0A52657475726E65642066F0
:101A1000726F6D206D61696E28292E2020537973B5
:101A200074656D2073746F702E000000496E7465CC
:101A3000727275707420776974686F75742068614C
:101A40006E646C65722028495352292E20205379E8
:101A50007374656D2073746F702E0000486172643A
:101A6000204661756C7420696E746572727570744D
:101A70002E202053797374656D2073746F702E005F
:101A8000646400000C0100200C0000200000000035
:101A90002801002090010020F80100200000000033
:101AA0000000000000000000000000000000000036
:101AB0000000000000000000000000000000000026
:101AC0000000000000000000000000000000000016
:101AD0000000000000000000000000000300000003
:041AE00028010020B9
:04000005080000B936
:00000001FF
