:020000040800F2
:1000000000200020B9000008851400089914000899
:1000100000000000000000000000000000000000E0
:10002000000000000000000000000000851400082F
:10003000000000000000000085140008851400087E
:10004000851400088514000885140008851400082C
:10005000851400088514000885140008851400081C
:1000600000000000851400088514000885140008AD
:100070008514000885140008000000003B010008FA
:1000800000000000851400080000000000000000CF
:10009000851400080000000085140008851400087D
:1000A000851400088514000885140008B50F0008A1
:1000B000851400088514000801F060F901F022F9A8
:1000C000E1235B02180000F0CDFE62B6C04600F0EE
:1000D000C7FC024B180001F035F8FEE76C19000868
:1000E00080B500AF0A4B0B4A5A60094B00229A6058
:1000F000074B05221A60C046054B1A6880235B0235
:100100001340F9D0024B00221A60C046BD4680BDA4
:1001100010E000E0FF7C000080B582B000AF7860A6
:1001200001E0FFF7DDFF7B685A1E7A60002BF8D1F3
:10013000C046C046BD4602B080BD80B500AF80233A
:10014000DB051A698023DB0501218A431A61A0239C
:10015000DB055A69A023DB05802109014A405A6169
:10016000A023DB055A69A023DB05802149014A4011
:100170005A61C046BD4680BD80B500AF124BDA6AF9
:10018000114B01210A43DA62A023DB051B680F4AE9
:100190001A40A023DB05802149020A431A600A4B5A
:1001A000DA6A094B02210A43DA62094B1A68084BE2
:1001B0000C210A431A60064B1A68054B03210A43B7
:1001C0001A60C046BD4680BD00100240FFFFFCFF24
:1001D0000004005080B500AF244B5A6B234B8021A4
:1001E00089000A435A63224B1A69214BC021090630
:1001F0000A431A611E4B1A681D4B01210A431A60FB
:100200001B4B9A681A4B01210A439A60184BDA6813
:1002100080231B02134005D1C046154B1B680122E9
:100220001340FAD0124B9B680122134005D0104BAB
:100230009A680F4B02210A439A600D4B9A680C4B47
:10024000802109060A439A60C046094B1A68802338
:100250001B011340F9D0064B1A68054B8021090198
:100260000A431A60C046BD4680BDC0460010024029
:100270000024014080B582B000AF7860164BDA6888
:10028000154B802109020A43DA60134B7A689A629F
:10029000114B5A69104B07210A435A617A6880232F
:1002A0009B029A4206D10D4B1A680C4B8021C90360
:1002B0000A431A60084B9A68074B04210A439A6064
:1002C000C046054B1B6804221340FAD0024B1B6C3E
:1002D0001800BD4602B080BD00240140082701403F
:1002E00080B500AF3D4BDA6A3C4B01210A43DA622C
:1002F000A023DB051B68032293431A00A023DB0520
:1003000001210A431A60A023DB055A68A023DB05FC
:1003100001218A435A60A023DB051B680C2293430A
:100320001A00A023DB0504210A431A60A023DB0581
:100330005A68A023DB0502218A435A60A023DB050B
:100340001B68302293431A00A023DB0510210A43C7
:100350001A60A023DB055A68A023DB0504218A4329
:100360005A60A023DB051B68C02293431A00A02318
:10037000DB0540210A431A60A023DB055A68A0234D
:10038000DB0508218A435A60A023DB051B68144A59
:100390001A40A023DB05802149000A431A60A023EC
:1003A000DB055A68A023DB0510218A435A60A0238D
:1003B000DB051B680B4A1A40A023DB058021C9001E
:1003C0000A431A60A023DB055A68A023DB0520211D
:1003D0008A435A60C046BD4680BDC04600100240F8
:1003E000FFFCFFFFFFF3FFFF80B582B000AF02000C
:1003F000FB1D1A70FB1D1B781900104801F0A4F9B1
:10040000030019000E4801F09FF903005A1E0D4B1E
:100410005A600C4B00229A600A4B05221A60C046B3
:10042000084B1A6880235B021340F9D0054B002269
:100430001A60C046BD4602B080BDC04640420F00B3
:100440000048E80110E000E080B584B000AF7860BB
:100450000023FB6015E00B23FB1800221A7008E054
:10046000FA20FFF7C1FF0B217B181A787B180132A5
:100470001A700B23FB181B78032BF1D9FB6801338F
:10048000FB60FA687B689A42E5D3C046C046BD4629
:1004900004B080BD80B500AFA023DB055A69A0235E
:1004A000DB0502210A435A612820FFF79DFFA023A4
:1004B000DB055A69A023DB0502218A435A61C04645
:1004C000BD4680BD80B582B000AF0200FB1D1A7032
:1004D000FB1D1B785BB2002B08DAA023DB055A69F1
:1004E000A023DB0520210A435A6107E0A023DB0596
:1004F0005A69A023DB0520218A435A61FB1D1B7822
:100500004022134008D0A023DB055A69A023DB0555
:1005100010210A435A6107E0A023DB055A69A02392
:10052000DB0510218A435A61FB1D1B7820221340F2
:1005300008D0A023DB055A69A023DB0508210A4364
:100540005A6107E0A023DB055A69A023DB050821D7
:100550008A435A61FB1D1B781022134008D0A02348
:10056000DB055A69A023DB0504210A435A6107E031
:10057000A023DB055A69A023DB0504218A435A61C5
:10058000FFF788FF2820FFF72FFFFB1D1B780822AD
:10059000134008D0A023DB055A69A023DB052021E6
:1005A0000A435A6107E0A023DB055A69A023DB0553
:1005B00020218A435A61FB1D1B780422134008D076
:1005C000A023DB055A69A023DB0510210A435A61E9
:1005D00007E0A023DB055A69A023DB0510218A432D
:1005E0005A61FB1D1B780222134008D0A023DB05B3
:1005F0005A69A023DB0508210A435A6107E0A023BA
:10060000DB055A69A023DB0508218A435A61FB1DDB
:100610001B780122134008D0A023DB055A69A023D0
:10062000DB0504210A435A6107E0A023DB055A6970
:10063000A023DB0504218A435A61FFF72BFFC04644
:10064000BD4602B080BD80B582B000AF0200FB1D88
:100650001A70A023DB055A69A023DB0501210A4398
:100660005A61FB1D1B781800FFF72CFF0220FFF7D3
:10067000EBFEC046BD4602B080BD80B582B000AF83
:100680000200FB1D1A70A023DB055A69A023DB05BD
:1006900001218A435A61FB1D1B781800FFF712FFE6
:1006A0000520FFF7D1FEC046BD4602B080BD80B533
:1006B00000AFA023DB055A69A023DB0502218A4392
:1006C0005A611420FFF7C0FE3320FFF7D6FF332016
:1006D000FFF7D3FF3220FFF7D0FF2820FFF7CDFF31
:1006E0000C20FFF7CAFF0120FFF7C7FF1420FFF718
:1006F000ABFEC046BD4680BD80B584B000AF78601B
:1007000008001100FB1C021C1A70BB1C0A1C1A708A
:10071000FB1C1B78022B01D1C02300E080231800B2
:10072000FFF7ABFF0520FFF78FFE0023FB6009E01A
:10073000FB687A68D3181B781800FFF784FFFB6802
:100740000133FB60FB687A68D3181B78002BEFD16C
:10075000BB1C1B78002B09D005E02020FFF773FF9E
:10076000FB680133FB60FB680F2BF6DDC046BD461E
:1007700004B080BD80B500AF664BDA6A654B0121DD
:100780000A43DA62A023DB051B68634A1A40A023F0
:10079000DB058021C9030A431A60A023DB055A68E0
:1007A000A023DB055D490A405A60A023DB051B68D6
:1007B0005B4A1A40A023DB05802149040A431A60E2
:1007C000A023DB055A68A023DB0556490A405A607E
:1007D000A023DB051A68A023DB0553490A401A60F1
:1007E000A023DB05DA68A023DB058021C9040A43C6
:1007F000DA60A023DB05DA68A023DB054B490A4059
:10080000DA60A023DB051A68A023DB0548490A400B
:100810001A60A023DB05DA68A023DB0580214905E7
:100820000A43DA60A023DB05DA68A023DB0541492F
:100830000A40DA60A023DB051A68A023DB059200DA
:1008400092081A60A023DB05DA68A023DB0580216B
:10085000C9050A43DA60A023DB05DA68A023DB05BB
:1008600052005208DA602B4BDA6A2A4B02210A4303
:10087000DA62314B1A68304B40218A431A602E4BA2
:100880001A682D4B2D490A401A602B4B1A682A4BC7
:100890002B490A401A60284BDB682A4A1A40264B2B
:1008A00029490A43DA601B4B9A6B1A4B01210A4310
:1008B0009A638023DB05F6229200DA62234B1A68E2
:1008C000224B802109020A431A608023DB051A6843
:1008D0008023DB0510210A431A608023DB051A6898
:1008E0008023DB0580210A431A608023DB05DA6858
:1008F0008023DB0501210A43DA608023DB051A68C7
:100900008023DB0501210A431A6062B6C046C04657
:10091000BD4680BD00100240FFFF3FFFFFF7FFFF15
:10092000FFFFFFFCFFEFFFFFFFFFFFF3FFFFFFF7FE
:10093000FFFFFFCFFFFFFFDF00040050FFFEFFFFC0
:10094000FFBFFFFF3F3CFFFF4041000000E100E030
:1009500080B582B000AF7860404A8023D3583F49C9
:1009600080221202134380228B503E20FFF7D4FBDB
:100970003A4B1A68394B802109020A431A603E201B
:10098000FFF7CAFB7B68012B13D1344A8023D3586D
:10099000324980221202134380228B507C20FFF7C1
:1009A000BBFB2E4B1A682D4B802109020A431A60AB
:1009B0004FE07B68022B29D1284A8023D35827494E
:1009C00080221202134380228B503E20FFF7A4FBAB
:1009D000224B1A68214B802109020A431A603E20EB
:1009E000FFF79AFB1D4A8023D3581C49802212022C
:1009F000134380228B503E20FFF78EFB174B1A6863
:100A0000164B802109020A431A6022E07B68032BFF
:100A100019D1124A8023D35810498022120213435D
:100A200080228B503E20FFF777FB0C4B1A680B4B54
:100A3000802109020A431A603E20FFF76DFB3E2029
:100A4000FFF76AFB05E07B68042B02D13E20FFF72D
:100A500063FBC046BD4602B080BDC04600E100E079
:100A600080B58AB000AF01237B6201233B61FA238A
:100A70005B001800FFF750FBFFF77EFBFFF7AAFBB8
:100A8000FFF778FEFFF72CFCFFF711FEA023DB0534
:100A90005A69A023DB05802109010A435A61A0237A
:100AA000DB055A69A023DB059C490A405A61FA23F9
:100AB0005B001800FFF730FB994B01220121180061
:100AC000FFF71AFE80239B001800FFF7D3FB0300FB
:100AD000FB6080235B001800FFF7CCFB0300BB60CA
:100AE000FB68904A934204DCFA68AC235B009A42AC
:100AF00009DCFB688C4A934202DD0023BB6114E0F1
:100B000000237B6111E0BB68874A934204DCBA682A
:100B1000FA235B009A4208DABB68834A934202DDFB
:100B20000023FB6101E000233B627B68002B2CD19A
:100B30007B6A012B0ED100237B627C4B01220121B9
:100B40001800FFF7D9FD7A4B012202211800FFF7A8
:100B5000D3FD07E001237B62714B012201211800C4
:100B6000FFF7CAFD734A8023D358724980221202CC
:100B7000134380228B503720FFF7CEFA6D4B1A6853
:100B80006C4B802109020A431A607B6A012B00D05A
:100B9000A1E0694B1B69802213405A1E9341DBB2CE
:100BA0003B613B69002B1BD1644B012202211800E1
:100BB000FFF7A2FD5F4A8023D3585E4980221202CC
:100BC000134380228B503C20FFF7A6FA594B1A683A
:100BD000584B802109020A431A60FA20FFF79CFA59
:100BE0003B6A002B18D1564B012202211800FFF757
:100BF00083FD504A8023D3584E498022120213436A
:100C000080228B50C820FFF787FA4A4B1A68494B5D
:100C1000802109020A431A60FB69002B1DD1494B50
:100C2000012202211800FFF767FD424A8023D358B2
:100C3000404980221202134380228B5096235B008E
:100C40001800FFF769FA3B4B1A683A4B80210902FA
:100C50000A431A60FA20FFF75FFABB69002B1BD129
:100C6000394B012202211800FFF746FD314A80234B
:100C7000D358304980221202134380228B50FA202D
:100C8000FFF74AFA2B4B1A682A4B802109020A43C4
:100C90001A60FA20FFF740FA7B69002B1BD12B4B1F
:100CA000012202211800FFF727FD224A8023D35892
:100CB000204980221202134380228B503E20FFF7EE
:100CC0002BFA1C4B1A681B4B802109020A431A603D
:100CD000FA20FFF721FA3B69012B11D13B6A012B66
:100CE0000ED1FB69012B0BD1BB69012B08D17B69AC
:100CF000012B05D10E4B012202211800FFF7FCFC4D
:100D000001233B620123FB6101237B610123BB6162
:100D1000FA235B001800FFF7FFF9D3E6FFEFFFFFB0
:100D200020190008A60E0000740E000030190008FB
:100D30003C19000800E100E00004005040190008E0
:100D400048190008501900085C19000864190008C7
:100D500090B585B000AF78603960184B1B68002BE8
:100D600002D101235B4224E00023FB600AE0FB6820
:100D70005A1CFA603A68D418114B180000F0ADF90B
:100D8000030023707B68013B1A00FB68934205D285
:100D90000B4B180000F0CCF9031EE8D1FB68002BC8
:100DA00006D03A68FB68D31800221A70FB6800E08E
:100DB00000231800BD4605B090BDC046A400002029
:100DC0000C00002080B584B000AF78603960224B01
:100DD0001B68002B02D101235B4238E07B683F2B6C
:100DE0000BDCC0461D4B180000F0A2F903004022A6
:100DF000D21A7B689A42F5D302E002235B4226E0D6
:100E00000023FB600BE03A68FB68D3181A78134B99
:100E10001100180000F030F9FB680133FB607B68BB
:100E2000FA689A42EFD30E4B1B68082213400DD18B
:100E30000B4B1A680A4B08210A431A60074B18002B
:100E400000F04BF903001A00054B9A6200231800CA
:100E5000BD4604B080BDC046A4000020580000205C
:100E60000038014080B584B000AF786072B6C046EB
:100E7000454B00229A64444B9A6C434B5A64424B54
:100E80005A6C414B1A64414B00229A643F4B9A6C56
:100E90003E4B5A643D4B5A6C3C4B1A643C4B01220E
:100EA0001A603C4B00221A603B4BDA6A3A4B012134
:100EB0000A43DA62394BFB607968F86800F044FC59
:100EC0000300FB60A023DB059A68A023DB058021DB
:100ED000C9020A439A60A023DB055A68A023DB05F8
:100EE0002F490A405A60A023DB051B682D4A1A408F
:100EF000A023DB05802109030A431A60A023DB0538
:100F00005A6AA023DB0540210A435A62A023DB056D
:100F10001B68254A1A40A023DB05802189030A4368
:100F20001A60A023DB055A6AA023DB058021C900D3
:100F30000A435A62184B5A6B174B8021C9010A4366
:100F40005A631A4B1A68194B6C210A431A60174BE3
:100F500000225A60154B00229A60144BFA68DA603E
:100F6000124B1A68114B01210A431A60104B1A6880
:100F70000F4B802109050A431A6062B6C046C0467D
:100F8000BD4604B080BDC0460C00002058000020C3
:100F9000A4000020A8000020001002400048E80142
:100FA000FFFDFFFFFFFFF3FFFFFFCFFF0038014012
:100FB00000E100E080B500AF084BDB698022134000
:100FC00001D000F025F8054BDB692022134001D049
:100FD00000F006F8C046BD4680BDC046003801405E
:100FE00080B500AF074B5B6ADAB2074B11001800FF
:100FF00000F042F8031E02D0044B01221A60C046E2
:10100000BD4680BD003801400C000020A800002033
:1010100080B500AF164B180000F08AF8031E08D008
:10102000134B180000F059F803001A00114B9A6294
:101030001BE0104B1A680F4B08218A431A600D4BB6
:10104000DB694022134005D00A4B1A6A094B402144
:101050000A431A62074BDB698022134005D0054B17
:101060009A69044B10210A439A61C046BD4680BD6F
:10107000580000200038014080B582B000AF786091
:101080000A00FB1C1A707B681A6C7B685B6C9A42C6
:1010900005D17B689B6C002B01D0012319E072B64F
:1010A000C0467B681B6C591C7A6811647A68F91C0D
:1010B0000978D1547B689B6C5A1C7B689A647B6866
:1010C0001B6C402B02D17B6800221A6462B6C046BA
:1010D00000231800BD4602B080BD80B584B000AFCB
:1010E00078607B689B6C002B01D100231CE072B6FA
:1010F000C0467B685B6C591C7A6851640F22BA1831
:101100007968CB5C13707B685B6C402B02D17B6889
:1011100000225A647B689B6C5A1E7B689A6462B694
:10112000C0460F23FB181B781800BD4604B080BDD5
:1011300080B582B000AF78607B689B6C1800BD46BC
:1011400002B080BD80B582B000AF78600B4B1B68E9
:10115000002B09D101235B420BE07B685A1C7A60AB
:1011600019000120FFF72EFE7B681B78002BF4D1BD
:1011700000231800BD4602B080BDC046A400002078
:1011800080B582B000AF0200FB1D1A70FB1D190074
:101190000120FFF717FEC046BD4602B080BD80B5F6
:1011A00000AF044B1800FFF798FF03001800BD467E
:1011B00080BDC0460C000020B0B584B000AF7860A0
:1011C00039601E4B1B68002B02D101235B4231E0CA
:1011D0000023FB600B23FB1800221A7017E0C046A7
:1011E000174B1800FFF7A4FF031EF9D00B257C193D
:1011F000134B1800FFF771FF03002370FB685A1CA4
:10120000FA601A007B689B187A1912781A703B688A
:10121000013BFA689A4204DA0B23FB181B780D2B6A
:10122000DDD1FB68002B04DDFB687A68D31800224F
:101230001A70FB681800BD4604B0B0BDA4000020C1
:101240000C00002090B583B000AFFC1DFFF7A7FF96
:1012500003002370FB1D1B781800FFF791FFFB1D97
:101260001B781800BD4603B090BDB0B584B000AF88
:1012700078603960214B1B68002B02D101235B424F
:1012800037E00023FB600B23FB1800221A701DE0DF
:10129000C0461B4B1800FFF74BFF031EF9D00B2570
:1012A0007C19174B1800FFF718FF030023702C0060
:1012B0003B191B781800FFF763FFFB685A1CFA60A4
:1012C0001A007B689B183A1912781A703B68013B28
:1012D000FA689A4204DA0B23FB181B780D2BD7D13E
:1012E000FB68002B04DDFB687A68D31800221A70B3
:1012F000FB681800BD4604B0B0BDC046A400002085
:101300000C00002080B582B000AF164B7B60164BFE
:101310003B6007E07A68131D7B603B68191D3960EC
:1013200012681A603A68114B9A42F3D304E03B68A2
:101330001A1D3A6000221A603A680D4B9A42F6D3A1
:101340000C4B3B6004E03B681A1D3A601B689847F1
:101350003A68094B9A42F6D3C046C046BD4602B031
:1013600080BDC046E81900080000002008000020E9
:10137000BC000020E8190008E819000880B500AF9B
:101380003B4B1A683A4B01210A431A60C046384B5E
:101390001B6804221340FAD0354B0122DA60C046A4
:1013A000334BDB680C221340042BF9D1314B1A6804
:1013B000304B02210A431A602E4B1A682D4B012133
:1013C0000A431A602A4B9A6B294B802149050A432C
:1013D0009A63294B802212011A60C046264B5B6833
:1013E00010221340FAD1224BDA68214B23490A40DC
:1013F000DA601F4BDA681E4B8821C9030A43DA60A2
:101400001B4A1B4BD268DA60194A194BD268DA6062
:10141000174A174BD268DA60154B1A68144B1849F3
:101420000A401A60124B1A68114B802149040A4382
:101430001A60C0460E4B1A6880239B041340F9D0F3
:101440000B4BDA680A4B03218A43DA60084BDA68EF
:10145000074B03210A43DA60C046054BDB680C22C8
:1014600013400C2BF9D1C046C046BD4680BDC046D6
:10147000001002400020024000700040FFFF02FF09
:10148000FFFFFFFE80B500AF024B1800FFF75AFECA
:10149000FEE7C0469419000880B500AF024B180063
:1014A000FFF750FEFEE7C046C419000880B582B0C1
:1014B00000AF7860FEE780B582B000AF78600123AE
:1014C0005B421800BD4602B080BD80B584B000AF5D
:1014D000F860B9607A60044B0C221A6001235B4209
:1014E0001800BD4604B080BDB800002080B500AF34
:1014F000034B0B221A6001235B421800BD4680BDDE
:10150000B800002080B582B000AF786039603B68D9
:10151000802292015A6000231800BD4602B080BDAF
:1015200080B500AF01231800BD4680BD80B582B0F4
:1015300000AF78603960044B16221A6001235B42C9
:101540001800BD4602B080BDB800002080B582B052
:1015500000AF78603960044B1F221A6001235B42A0
:101560001800BD4602B080BDB800002080B584B030
:1015700000AFF860B9607A6000231800BD4604B07F
:1015800080BD80B582B000AF786039603B68802252
:1015900092015A6000231800BD4602B080BD80B59C
:1015A00082B000AF786001235B421800BD4602B0F4
:1015B00080BD80B582B000AF7860044B02221A6013
:1015C00001235B421800BD4602B080BDB800002078
:1015D00080B582B000AF7860044B0A221A60012304
:1015E0005B421800BD4602B080BDC046B800002076
:1015F00080B582B000AF78607B68022B01D80123F0
:1016000003E0044B09221A6000231800BD4602B013
:1016100080BDC046B800002080B586B000AF7860BD
:10162000124B7B61124B3B61124B1B68002B02D1AA
:10163000104B7A691A600F4B1B68FB600D4B1A68E0
:101640007B68D3183A699A4205D20B4B0C221A6078
:1016500001235B4206E0074B1A687B68D218054BF2
:101660001A60FB681800BD4606B080BDBC000020B3
:1016700000100020B4000020B800002080B588B021
:1016800000AFF860B9607A600023BB61FB68002B93
:1016900022D10023FB611AE0FFF781FD03001A004D
:1016A00017217B181A70BB685A1CBA607A18127816
:1016B000D2B21A70BB690133BB617B181B78DBB2F5
:1016C0000A2B01D1BB690EE0FB690133FB61FA69AA
:1016D0007B689A42E0DB05E0054B09221A60012392
:1016E0005B4200E0BB691800BD4608B080BDC04643
:1016F000B800002080B586B000AFF860B9607A60AD
:10170000FB68013B012B11D800237B6109E0BB681A
:101710005A1CBA601B781800FFF732FD7B69013351
:101720007B617A697B689A42F1DB05E0054B09220F
:101730001A6001235B4200E07B681800BD4606B0DA
:1017400080BDC046B800002003460B437FD4002272
:1017500043088B4274D303098B425FD3030A8B4245
:1017600044D3030B8B4228D3030C8B420DD3FF22AF
:10177000090212BA030C8B4202D31212090265D07D
:10178000030B8B4219D300E0090AC30B8B4201D330
:10179000CB03C01A5241830B8B4201D38B03C01A77
:1017A0005241430B8B4201D34B03C01A5241030BEE
:1017B0008B4201D30B03C01A5241C30A8B4201D39F
:1017C000CB02C01A5241830A8B4201D38B02C01A4A
:1017D0005241430A8B4201D34B02C01A5241030AC1
:1017E0008B4201D30B02C01A5241CDD2C3098B42A6
:1017F00001D3CB01C01A524183098B4201D38B0123
:10180000C01A524143098B4201D34B01C01A5241C5
:1018100003098B4201D30B01C01A5241C3088B420A
:1018200001D3CB00C01A524183088B4201D38B00F5
:10183000C01A524143088B4201D34B00C01A524197
:10184000411A00D201465241104670475DE0CA0F6E
:1018500000D04942031000D34042534000229C462E
:1018600003098B422DD3030A8B4212D3FC22890138
:1018700012BA030A8B420CD3890192118B4208D30E
:10188000890192118B4204D389013AD0921100E070
:101890008909C3098B4201D3CB01C01A5241830984
:1018A0008B4201D38B01C01A524143098B4201D3B1
:1018B0004B01C01A524103098B4201D30B01C01ADC
:1018C0005241C3088B4201D3CB00C01A5241830856
:1018D0008B4201D38B00C01A5241D9D243088B42AC
:1018E00001D34B00C01A5241411A00D2014663464F
:1018F00052415B10104601D34042002B00D54942B3
:10190000704763465B1000D3404201B5002000F0F1
:1019100005F802BD0029F8D016E770477047C046A9
:10192000436F6E74726F6C204D6F64650000000031
:10193000466F6C6C6F77204D6F646500200000006F
:10194000484F4E4B00000000466F72776172640092
:101950004261636B77617264730000004C6566746A
:101960000000000052696768740000000D0A5265AB
:101970007475726E65642066726F6D206D61696E3C
:1019800028292E202053797374656D2073746F702D
:101990002E000000496E746572727570742077694C
:1019A00074686F75742068616E646C657220284974
:1019B0005352292E202053797374656D2073746FF0
:1019C000702E000048617264204661756C74206955
:1019D0006E746572727570742E20205379737465FD
:0819E0006D2073746F702E007E
:0819E80064640000B00000205F
:04000005080000B936
:00000001FF
