:020000040800F2
:1000000000200020B9000008090B00081D0B0008A3
:1000100000000000000000000000000000000000E0
:10002000000000000000000000000000090B0008B4
:100030000000000000000000090B0008090B000888
:10004000090B0008090B0008090B0008090B000840
:10005000090B0008090B0008090B0008090B000830
:1000600000000000090B0008090B0008090B00083C
:10007000090B0008090B0008000000003B01000804
:1000800000000000090B0008000000000000000054
:10009000090B000800000000090B0008090B00080C
:1000A000090B0008090B0008090B000839060008B5
:1000B000090B0008090B000800F0A2FC00F064FC2A
:1000C000E1235B02180000F00FFA62B6C04600F0B0
:1000D00037F9024B180000F077FBFEE778240008A0
:1000E00080B500AF0A4B0B4A5A60094B00229A6058
:1000F000074B05221A60C046054B1A6880235B0235
:100100001340F9D0024B00221A60C046BD4680BDA4
:1001100010E000E0FF7C000080B582B000AF7860A6
:1001200001E0FFF7DDFF7B685A1E7A60002BF8D1F3
:10013000C046C046BD4602B080BD80B500AF80233A
:10014000DB051A698023DB0501218A431A61A0239C
:10015000DB055A69A023DB05802109014A405A6169
:10016000A023DB055A69A023DB05802149014A4011
:100170005A61C046BD4680BD80B500AF624BDA6AA9
:10018000614B01210A43DA62A023DB051B685F4A49
:100190001A40A023DB058021C9030A431A60A0236B
:1001A000DB055A68A023DB0559490A405A60A023A1
:1001B000DB051B68574A1A40A023DB058021490450
:1001C0000A431A60A023DB055A68A023DB055249C5
:1001D0000A405A60A023DB051A68A023DB054F49BB
:1001E0000A401A60A023DB05DA68A023DB05802122
:1001F000C9040A43DA60A023DB05DA68A023DB0523
:1002000047490A40DA60A023DB051A68A023DB0512
:1002100044490A401A60A023DB05DA68A023DB0505
:10022000802149050A43DA60A023DB05DA68A023B0
:10023000DB053D490A40DA60A023DB051A68A023EC
:10024000DB05920092081A60A023DB05DA68A02380
:10025000DB058021C9050A43DA60A023DB05DA68E3
:10026000A023DB0552005208DA60274BDA6A264BDE
:1002700002210A43DA622D4B1A682C4B40218A4333
:100280001A602A4B1A68294B29490A401A60274BE1
:10029000DA68264B27490A40DA601B4B9A6B1A4BE7
:1002A00001210A439A638023DB05234ADA62234B48
:1002B0001A68224B802109020A431A608023DB0559
:1002C0001A688023DB0510210A431A608023DB05AE
:1002D0001A688023DB0580210A431A608023DB052E
:1002E000DA688023DB0501210A43DA608023DB051D
:1002F0001A688023DB0501210A431A6062B6C046F2
:10030000C046BD4680BDC04600100240FFFF3FFF13
:10031000FFF7FFFFFFFFFFFCFFEFFFFFFFFFFFF314
:10032000FFFFFFF7FFFFFFCFFFFFFFDF00040050DD
:10033000FFFEFFFFBFFDFFFFDA03000000E100E06A
:1003400080B58CB000AF0023BB62FFF715FFA02380
:10035000DB055A69A023DB05802109010A435A61A4
:10036000A023DB055A69A023DB0516490A405A6120
:10037000FA235B001800FFF7CFFE134B1B69102216
:1003800013405A425341DBB2FB620F4B1B691022F0
:1003900013405A1E9341DBB27B620BE07B6AFB6227
:1003A0000A4B180001F028F8094B1B689B681800DD
:1003B00000F0B2FE7A6AFB6A9A42EFD16420FFF73E
:1003C000ABFEE2E7FFEFFFFF0004005074240008DB
:1003D0001400002090B585B000AF78603960184BEC
:1003E0001B68002B02D101235B4224E00023FB6049
:1003F0000AE0FB685A1CFA603A68D418114B1800DE
:1004000000F0ADF9030023707B68013B1A00FB6824
:10041000934205D20B4B180000F0CCF9031EE8D133
:10042000FB68002B06D03A68FB68D31800221A70CC
:10043000FB6800E000231800BD4605B090BDC04633
:10044000000100206800002080B584B000AF786013
:100450003960224B1B68002B02D101235B4238E03C
:100460007B683F2B0BDCC0461D4B180000F0A2F947
:1004700003004022D21A7B689A42F5D302E002239D
:100480005B4226E00023FB600BE03A68FB68D31870
:100490001A78134B1100180000F030F9FB68013393
:1004A000FB607B68FA689A42EFD30E4B1B68082208
:1004B00013400DD10B4B1A680A4B08210A431A60EE
:1004C000074B180000F04BF903001A00054B9A6225
:1004D00000231800BD4604B080BDC04600010020C6
:1004E000B40000200038014080B584B000AF7860CF
:1004F00072B6C046454B00229A64444B9A6C434BFB
:100500005A64424B5A6C414B1A64414B00229A6424
:100510003F4B9A6C3E4B5A643D4B5A6C3C4B1A64B1
:100520003C4B01221A603C4B00221A603B4BDA6ABA
:100530003A4B01210A43DA62394BFB607968F8686B
:1005400000F044FC0300FB60A023DB059A68A023B5
:10055000DB058021C9020A439A60A023DB055A68A3
:10056000A023DB052F490A405A60A023DB051B6846
:100570002D4A1A40A023DB05802109030A431A6093
:10058000A023DB055A6AA023DB0540210A435A62F7
:10059000A023DB051B68254A1A40A023DB05802128
:1005A00089030A431A60A023DB055A6AA023DB05EE
:1005B0008021C9000A435A62184B5A6B174B80219D
:1005C000C9010A435A631A4B1A68194B6C210A4332
:1005D0001A60174B00225A60154B00229A60144B88
:1005E000FA68DA60124B1A68114B01210A431A604B
:1005F000104B1A680F4B802109050A431A6062B636
:10060000C046C046BD4604B080BDC046680000205C
:10061000B40000200001002004010020001002406E
:100620000048E801FFFDFFFFFFFFF3FFFFFFCFFFE3
:100630000038014000E100E080B500AF084BDB6905
:100640008022134001D000F025F8054BDB69202201
:10065000134001D000F006F8C046BD4680BDC0463C
:100660000038014080B500AF074B5B6ADAB2074B38
:100670001100180000F042F8031E02D0044B0122C2
:100680001A60C046BD4680BD0038014068000020A9
:100690000401002080B500AF164B180000F08AF866
:1006A000031E08D0134B180000F059F803001A007D
:1006B000114B9A621BE0104B1A680F4B08218A43BA
:1006C0001A600D4BDB694022134005D00A4B1A6AB1
:1006D000094B40210A431A62074BDB698022134011
:1006E00005D0054B9A69044B10210A439A61C04614
:1006F000BD4680BDB40000200038014080B582B006
:1007000000AF78600A00FB1C1A707B681A6C7B686B
:100710005B6C9A4205D17B689B6C002B01D0012356
:1007200019E072B6C0467B681B6C591C7A6811646C
:100730007A68F91C0978D1547B689B6C5A1C7B68D9
:100740009A647B681B6C402B02D17B6800221A6480
:1007500062B6C04600231800BD4602B080BD80B519
:1007600084B000AF78607B689B6C002B01D10023C4
:100770001CE072B6C0467B685B6C591C7A68516499
:100780000F22BA187968CB5C13707B685B6C402BC6
:1007900002D17B6800225A647B689B6C5A1E7B687E
:1007A0009A6462B6C0460F23FB181B781800BD463A
:1007B00004B080BD80B582B000AF78607B689B6C70
:1007C0001800BD4602B080BD80B582B000AF786031
:1007D0000B4B1B68002B09D101235B420BE07B68AC
:1007E0005A1C7A6019000120FFF72EFE7B681B78E7
:1007F000002BF4D100231800BD4602B080BDC046D6
:100800000001002080B582B000AF0200FB1D1A700D
:10081000FB1D19000120FFF717FEC046BD4602B0C0
:1008200080BD80B500AF044B1800FFF798FF0300B0
:100830001800BD4680BDC04668000020B0B584B039
:1008400000AF786039601E4B1B68002B02D101237A
:100850005B4231E00023FB600B23FB1800221A707F
:1008600017E0C046174B1800FFF7A4FF031EF9D08E
:100870000B257C19134B1800FFF771FF0300237041
:10088000FB685A1CFA601A007B689B187A19127868
:100890001A703B68013BFA689A4204DA0B23FB1892
:1008A0001B780D2BDDD1FB68002B04DDFB687A681B
:1008B000D31800221A70FB681800BD4604B0B0BD02
:1008C000000100206800002090B583B000AFFC1D3F
:1008D000FFF7A7FF03002370FB1D1B781800FFF72D
:1008E00091FFFB1D1B781800BD4603B090BDB0B54D
:1008F00084B000AF78603960214B1B68002B02D1B7
:1009000001235B4237E00023FB600B23FB1800222E
:100910001A701DE0C0461B4B1800FFF74BFF031E6B
:10092000F9D00B257C19174B1800FFF718FF0300AF
:1009300023702C003B191B781800FFF763FFFB683E
:100940005A1CFA601A007B689B183A1912781A70C0
:100950003B68013BFA689A4204DA0B23FB181B78C8
:100960000D2BD7D1FB68002B04DDFB687A68D31808
:1009700000221A70FB681800BD4604B0B0BDC04626
:10098000000100206800002080B582B000AF164B47
:100990007B60164B3B6007E07A68131D7B603B6809
:1009A000191D396012681A603A68114B9A42F3D3E4
:1009B00004E03B681A1D3A6000221A603A680D4B49
:1009C0009A42F6D30C4B3B6004E03B681A1D3A6038
:1009D0001B6898473A68094B9A42F6D3C046C0460E
:1009E000BD4602B080BDC04628250008000000209A
:1009F0006400002064020020282500082825000843
:100A000080B500AF3B4B1A683A4B01210A431A608C
:100A1000C046384B1B6804221340FAD0354B0122E4
:100A2000DA60C046334BDB680C221340042BF9D14B
:100A3000314B1A68304B02210A431A602E4B1A6858
:100A40002D4B01210A431A602A4B9A6B294B8021B6
:100A500049050A439A63294B802212011A60C04655
:100A6000264B5B6810221340FAD1224BDA68214BE7
:100A700023490A40DA601F4BDA681E4B8821C903FC
:100A80000A43DA601B4A1B4BD268DA60194A194BD9
:100A9000D268DA60174A174BD268DA60154B1A68C9
:100AA000144B18490A401A60124B1A68114B8021E6
:100AB00049040A431A60C0460E4B1A6880239B04FF
:100AC0001340F9D00B4BDA680A4B03218A43DA60F2
:100AD000084BDA68074B03210A43DA60C046054B2E
:100AE000DB680C2213400C2BF9D1C046C046BD4632
:100AF00080BDC0460010024000200240007000404F
:100B0000FFFF02FFFFFFFFFE80B500AF024B1800A2
:100B1000FFF75AFEFEE7C046A024000880B500AFEC
:100B2000024B1800FFF750FEFEE7C046D024000835
:100B300080B582B000AF7860FEE780B582B000AFCC
:100B4000786001235B421800BD4602B080BD80B5CD
:100B500084B000AFF860B9607A60044B0C221A6070
:100B600001235B421800BD4604B080BD1401002083
:100B700080B500AF034B0B221A6001235B421800C3
:100B8000BD4680BD1401002080B582B000AF786002
:100B900039603B68802292015A6000231800BD46EC
:100BA00002B080BD80B500AF01231800BD4680BDF6
:100BB00080B582B000AF78603960044B16221A60AD
:100BC00001235B421800BD4602B080BD1401002025
:100BD00080B582B000AF78603960044B1F221A6084
:100BE00001235B421800BD4602B080BD1401002005
:100BF00080B584B000AFF860B9607A600023180057
:100C0000BD4604B080BD80B582B000AF7860396069
:100C10003B68802292015A6000231800BD4602B052
:100C200080BD80B582B000AF786001235B421800C0
:100C3000BD4602B080BD80B582B000AF7860044B85
:100C400002221A6001235B421800BD4602B080BD3B
:100C50001401002080B582B000AF7860044B0A22F6
:100C60001A6001235B421800BD4602B080BDC04639
:100C70001401002080B582B000AF78607B68022B41
:100C800001D8012303E0044B09221A600023180055
:100C9000BD4602B080BDC0461401002080B586B0BC
:100CA00000AF7860124B7B61124B3B61124B1B68AB
:100CB000002B02D1104B7A691A600F4B1B68FB6046
:100CC0000D4B1A687B68D3183A699A4205D20B4BD0
:100CD0000C221A6001235B4206E0074B1A687B680E
:100CE000D218054B1A60FB681800BD4606B080BDDF
:100CF00064020020001000201001002014010020D8
:100D000080B588B000AFF860B9607A600023BB613D
:100D1000FB68002B22D10023FB611AE0FFF781FD65
:100D200003001A0017217B181A70BB685A1CBA609E
:100D30007A181278D2B21A70BB690133BB617B1882
:100D40001B78DBB20A2B01D1BB690EE0FB690133D2
:100D5000FB61FA697B689A42E0DB05E0054B0922FA
:100D60001A6001235B4200E0BB691800BD4608B071
:100D700080BDC0461401002080B586B000AFF86089
:100D8000B9607A60FB68013B012B11D800237B61BD
:100D900009E0BB685A1CBA601B781800FFF732FDE7
:100DA0007B6901337B617A697B689A42F1DB05E0FC
:100DB000054B09221A6001235B4200E07B681800A2
:100DC000BD4606B080BDC0461401002003460B435B
:100DD0007FD4002243088B4274D303098B425FD334
:100DE000030A8B4244D3030B8B4228D3030C8B4260
:100DF0000DD3FF22090212BA030C8B4202D3121246
:100E0000090265D0030B8B4219D300E0090AC30B1A
:100E10008B4201D3CB03C01A5241830B8B4201D3C7
:100E20008B03C01A5241430B8B4201D34B03C01AB0
:100E30005241030B8B4201D30B03C01A5241C30A28
:100E40008B4201D3CB02C01A5241830A8B4201D399
:100E50008B02C01A5241430A8B4201D34B02C01A83
:100E60005241030A8B4201D30B02C01A5241CDD228
:100E7000C3098B4201D3CB01C01A524183098B4273
:100E800001D38B01C01A524143098B4201D34B015C
:100E9000C01A524103098B4201D30B01C01A5241BF
:100EA000C3088B4201D3CB00C01A524183088B4246
:100EB00001D38B00C01A524143088B4201D34B002F
:100EC000C01A5241411A00D20146524110467047A1
:100ED0005DE0CA0F00D04942031000D340425340A6
:100EE00000229C4603098B422DD3030A8B4212D366
:100EF000FC22890112BA030A8B420CD38901921198
:100F00008B4208D3890192118B4204D389013AD0D4
:100F1000921100E08909C3098B4201D3CB01C01AA9
:100F2000524183098B4201D38B01C01A52414309BC
:100F30008B4201D34B01C01A524103098B4201D3AA
:100F40000B01C01A5241C3088B4201D3CB00C01A17
:100F5000524183088B4201D38B00C01A5241D9D22F
:100F600043088B4201D34B00C01A5241411A00D2B0
:100F70000146634652415B10104601D34042002BAC
:100F800000D54942704763465B1000D3404201B52B
:100F9000002000F005F802BD0029F8D016E77047E0
:100FA0007047C046F7B50C228B5E05000C001A078F
:100FB00061D44A68002A02DC0A6C002A42DDE76A32
:100FC000002F3FD0002280202E682A601A004001A6
:100FD000216A0240034227D0626DA3895B0706D5D0
:100FE0006368D21A636B002B01D0236CD21A0023E2
:100FF0002800E76A216AB847431C25D000236360B4
:1010000023692360A389DB0400D56065616B2E60D2
:10101000002917D023004433994202D0280000F061
:10102000ABFA002363630DE001232800B8470200F8
:10103000431CD2D12B68002BCFD01D2B01D0162BF7
:1010400031D12E60002035E02B680C21625E002B30
:1010500008D01D2B01D0162B0AD100236360236911
:101060002360D3E7636023692360D204CDD4CDE746
:10107000402313431BE00E69002EE3D00F680E607F
:10108000BA1B019200229B0700D14A69A260019B12
:10109000002BD7DDA36A32001F002800019B216AC4
:1010A000B847002807DC4023A28913431BB2012064
:1010B000A3814042FEBD019B36181B1A0193E6E74F
:1010C0000B6970B505000C00002B02D1002528002B
:1010D00070BD002804D0036A002B01D100F030F964
:1010E0000C22A35E002BF1D0626ED20704D49B05C4
:1010F00002D4A06D00F039FA28002100FFF752FF5A
:10110000636E0500DB07E2D4A3899B05DFD4A06DE5
:1011100000F031FADBE70000010010B5002805D12E
:10112000054A0649064800F03FF910BD054B18680E
:10113000FFF7C6FFF9E7C04608000020C11000080D
:101140001800002014000020002310B504000360E4
:101150004360836081814366C2810361436183612F
:10116000190008225C3000F0A5F90B4B2462636281
:101170000A4BA3620A4BE3620A4B23630A4B9C426D
:1011800005D00A4B9C4202D0094B9C4203D120005F
:10119000583000F0E6F910BD191400084514000895
:1011A0007D140008A9140008180100208001002007
:1011B000E801002010B5034A0349044800F0F4F8A0
:1011C00010BDC04608000020C11000081800002013
:1011D00041680B4B10B50400994201D0FFF770FF36
:1011E000A168084B994202D02000FFF769FFE1682F
:1011F000054B994202D02000FFF762FF10BDC046A8
:101200001801002080010020E80100204B6E10B57D
:10121000DB0705D48B899B0502D4886D00F0A5F906
:10122000002010BD4B6E10B5DB0705D48B899B05E4
:1012300002D4886D00F09FF9002010BD10B5094B55
:10124000094A04211A6009480022FFF77DFF0122A4
:1012500009210748FFF778FF022212210548FFF70E
:1012600073FF10BD50020020B511000818010020C6
:1012700080010020E801002010B5024800F075F957
:1012800010BDC0465B02002010B5024800F073F9A3
:1012900010BDC0465B020020F8B50700FFF7ECFF69
:1012A000244B1B68002B01D1FFF7C8FF224EB46806
:1012B0007368013B0FD53568002D38D1D621380031
:1012C000490000F0C5F9041E26D13060FFF7DCFFAD
:1012D0000C233B601CE00C22A55E002D1AD12000DF
:1012E000164B5830E360656600F03BF9FFF7CCFF22
:1012F0002000082229002560A560656025616561E0
:10130000A5615C3000F0D6F86563A563A564E5646B
:101310002000F8BD6834CCE70423D0220560436088
:101320000C302900A060520000F0C4F83460366828
:10133000BDE7C04650020020080000200100FFFF6A
:1013400010B50400FFF798FF236A002B02D0FFF7C7
:101350009BFF10BD044B2362044B1B68002BF6D18E
:10136000FFF76CFFF3E7C046D111000850020020E0
:1013700010B5FFF781FF0020024A034900F014F87E
:1013800010BDC046080000200D12000810B5044A28
:101390000449002000F008F8FFF776FF10BDC046B2
:1013A0000800002025120008F7B514000026009060
:1013B0000191A5686768013F04D52468002CF8D125
:1013C0003000FEBDAB89012B08D90E22AB5E013384
:1013D00004D029000098019B984706436835EAE746
:1013E0000EB403B503AB04CB8168019300F0F2F9AE
:1013F00002B008BC03B018470FB407B5054904ABE9
:10140000086804CB8168019300F0E4F903B008BCDC
:1014100004B018471400002070B50C000E25495F79
:1014200000F076F8002803DB636D1B18636570BD60
:10143000A389024A1340A381F9E7C046FFEFFFFFEB
:1014400000207047F8B51F008B8905000C001600BE
:10145000DB0505D50E23C95E0022022300F044F807
:10146000A389054A28001340A38132000E23E15EC0
:101470003B0000F061F8F8BDFFEFFFFF70B50C0016
:101480000E25495F00F030F8A389421C03D1054ABC
:101490001340A38170BD802252011343A381606574
:1014A000F8E7C046FFEFFFFF10B50E23C95E00F05E
:1014B00009F810BD03008218934200D170471970DB
:1014C0000133F9E7002370B5064D040008002B60D6
:1014D000FFF733FB431C03D12B68002B00D02360A4
:1014E00070BDC0461401002070B504000800110052
:1014F0001A000023054D2B60FFF77AFB431C03D134
:101500002B68002B00D0236070BDC0461401002062
:1015100070B50400080011001A000023054D2B606F
:10152000FFF7EEFB431C03D12B68002B00D0236098
:1015300070BDC0461401002070B504000800110001
:101540001A000023054D2B60FFF716FC431C03D146
:101550002B68002B00D0236070BDC0461401002012
:101560007047704770477047704770470120704759
:10157000012070477047704770B505000C1E10D0F1
:10158000043C2368002B00DAE418280000F0DAF8A5
:101590001D4A1368002B05D163601460280000F019
:1015A000D9F870BDA34208D9206821188B42F3D125
:1015B00019685B6809182160EEE71A005B68002B68
:1015C00001D0A342F9D911685018A0420BD120686C
:1015D0000918501811608342E0D118685B684118FF
:1015E00011605360DAE7A04202D90C232B60D5E7E3
:1015F000206821188B4203D119685B6809182160A3
:1016000063605460CAE7C0466002002070B50F4EA8
:101610000D0031680400002902D100F0A9FD3060FE
:101620002900200000F0A4FD431C03D101256D42D8
:10163000280070BD0323C51C9D43A842F8D0291A79
:10164000200000F095FD0130F2D1EFE75C020020B0
:101650000323F7B5CD1C9D43083506000C2D34D26D
:101660000C25A94233D8300000F06CF8344F3B68A9
:101670001C00002C2FD129003000FFF7C7FF040009
:10168000431C58D13C682100002949D1002C4CD082
:1016900023683000E318019300F06AFD019B834248
:1016A00043D123683000ED1A2900FFF7AFFF013066
:1016B0003BD023685B1923603B68002B3DD05A6800
:1016C000A24230D100225A6012E0002DC9DA0C2368
:1016D00033600020FEBD2168491B1ED40B2917D999
:1016E00062192560A34211D13A60636811605360AA
:1016F000300000F02FF8200007220B30231D90430C
:10170000C21A9842E6D01B1AA350E3E75A60ECE7EE
:101710006268A342D7D13A60EAE723006468A8E789
:101720000C004968B0E71300C7E70C2330003360B2
:1017300000F010F8CDE70560DAE75B60FFDEC04639
:101740006002002010B50248FFF70FFF10BDC04631
:101750005802002010B50248FFF70DFF10BDC0462B
:1017600058020020936810B5013B9360002B04DA07
:101770009469A34207DB0A2905D01368581C10603E
:101780001970080010BD00F035FC0100F9E7F8B54C
:1017900006000F001400D518AC4201D1002007E06C
:1017A00021783A003000FFF7DDFF0134431CF3D10C
:1017B000F8BD002310B5140092689A4205D02200AB
:1017C00000F0BAFA00220300A26000221800626052
:1017D00010BD0000F0B5A1B00F0015001E00039071
:1017E000002804D0036A002B01D1FFF7A9FD7B6E0E
:1017F000DB0705D4BB899B0502D4B86DFFF7B5FEA6
:10180000BB891B0702D53B69002B13D13900039814
:1018100000F03CFC00280DD07B6EDB0703D50120D7
:10182000404221B0F0BDBB899B05F8D4B86DFFF7ED
:10183000A2FEF4E7002308AC636120336376103323
:10184000A37607962E003378002B01D0252B48D1A4
:10185000731B0593AE420BD02A0039000398FFF7A3
:1018600096FF013000D1AEE06369059A9B18636171
:101870003378002B00D1A6E001220023524262609F
:1018800004A954325218751C2360E360A3601370DE
:10189000A365594B052218002978059300F07AFCBE
:1018A0006E1C00281FD12268D30604D5532304A937
:1018B0005B1820211970130704D5532304A95B1862
:1018C0002B2119702B782A2B16D02E0000210A20EC
:1018D000E3683278751C303A092A50D9002911D1B1
:1018E00017E00136AFE7059B2268C01A0123834049
:1018F000134335002360CCE7079B191D1B68079134
:10190000002B01DB0B9304E05B42E36002231343F3
:10191000236033782E2B0CD173782A2B34D1079B7C
:1019200002361A1D1B680792002B01DA01235B4265
:101930000993324D03222800317800F02BFC002857
:1019400006D04023401B83402268013613432360A6
:10195000317806222A48751C217600F01BFC0028ED
:1019600040D0284B002B22D10722079B07339343FB
:10197000083307936369049A9B18636162E74343E2
:101980002E0001219B18A4E700230A20190001362C
:1019900063603278751C303A092A03D9002BC8D00D
:1019A0000991C6E741432E0001238918F1E707AAF0
:1019B000009221003A00144B039800E000BF04900D
:1019C000049B0133D6D17B6EDB0705D4BB899B0515
:1019D00002D4B86DFFF7CFFDBB895B0600D51EE7CB
:1019E0000D981EE707AA009221003A00064B0398C3
:1019F00000F088F8E3E7C046F4240008FA24000861
:101A0000FE240008000000008F17000810B5044CE9
:101A100013000A0001002068FFF7DCFE10BDC0467D
:101A200014000020F7B5160001938A680B690C00BA
:101A30000090934200DA13002200336043321278A0
:101A4000002A01D00133336023689B0602D5336836
:101A5000023333602268062315001D401A4227D046
:101A6000230043331B785A1E93412268920630D4D8
:101A7000220001990098089D4332A847013025D0E3
:101A80000622236800251340042B05D13368E5683E
:101A9000ED1AEB43DB171D40A3682269934201DD79
:101AA0009B1AED180026B54220D1002010E0013528
:101AB000E36832689B1AAB42D2DD22000123019910
:101AC0000098089F1932B8470130F0D101204042F8
:101AD000FEBD3020E1184331087021005A1C453109
:101AE0000978A218433202331170C1E722000123A2
:101AF00001990098089F1A32B8470130E6D00136A4
:101B0000D1E70000F0B58BB006920A00433207938C
:101B1000059004920A7E0C00109B782A09D8622A4C
:101B20000BD8002A00D1C8E081490391582A00D17E
:101B30009CE0250042352A7022E010006338152809
:101B4000F7D800F003FC16001F00F6FFF6FFF6FFC3
:101B5000F6FF1F00F6FFF6FFF6FFF6FFAD004F00A1
:101B60008C00F6FFF6FFBE00F6FF4F00F6FFF6FF13
:101B7000900025001A684235111D196013682B70FA
:101B80000123ACE018680968021D0D061FD5066820
:101B90001A60674A0A2761680392002E35DA23002B
:101BA0002D2043331870A160002916DA0A277642E7
:101BB0000392049D3000390000F058FC039B013D66
:101BC0005B5C2B70330006009F42F3D92AE0066865
:101BD0001A604906DDD536B2DBE7042123688B4362
:101BE0002360E3E70868196840C9050602D4400687
:101BF00000D5B6B219604E4B0A2703936F2A00D165
:101C0000023F2300002243331A706368A360002B55
:101C1000CFDB042122688A432260002EC9D1049DB3
:101C2000002BC6D1082F09D12368DB0706D56268CF
:101C300023699A4202DC3023013D2B70049B5B1B1D
:101C40002361079B210000930598069B09AAFFF7D3
:101C5000E9FE013048D1012040420BB0F0BD202206
:101C600009680A43226078223249039121004531F4
:101C70000A701968226840C9100602D4500600D5BF
:101C8000B6B21960D30702D5202313432360002E78
:101C900001D01027B5E72022236893432360F8E79B
:101CA0001A680D68101D4969186013682E0601D561
:101CB000196002E06D06FBD519800023049D2361A5
:101CC000BFE71A68111D19601568002128006268B5
:101CD00000F060FA002801D0401B60606368236157
:101CE0000023049A1370ACE72A002369069905982B
:101CF000079DA8470130AED023689B0715D4099BE8
:101D0000E0689842A9DA1800A7E7220001230699A3
:101D10000598079E1932B04701309CD00135E36821
:101D2000099A9B1AAB42F0DCE9E70025F7E7C046C9
:101D30000525000816250008F0B5936887B00C004B
:101D400002900492002B02D1002007B0F0BD8B89D5
:101D50001B074CD50B69002B49D0049B1B680193D2
:101D60000C22A35E02221E001640134265D10122FE
:101D700001211A400B4200D198E030003700039651
:101D8000002F00D100E1002800D106E10596BE42F7
:101D900000D9059720682269A5686369904200D838
:101DA00008E1059AED18AA4200DC03E103992A0034
:101DB00000F0CAF9236821005B1902982360FFF73D
:101DC0007FF900286DD10120761B05D121000298F2
:101DD000FFF776F9002864D1039B049A5B190393FB
:101DE000049B7F1B9B685B1B9360C9D1ACE7210000
:101DF000029800F04BF90028AFD001204042A4E740
:101E0000019B1E685D6808330193A76A216A002D53
:101E1000F6D0754A2B00954200D913003200029883
:101E2000B84700283DDD049B049A9B6836181B1AAE
:101E30002D1A9360002BE8D186E700263500E4E7F1
:101E4000019B1B680393019B5D68083301930C227F
:101E5000A35E2068A668002DF2D080229200134273
:101E600062D0AE4237D89022D200134233D02169DB
:101E7000421A0320059262694243D70FBF18059AA0
:101E80007F1001325219BA4200D917005B053CD5C8
:101E900039000298FFF7DCFB061E0AD10C23029AD8
:101EA00013604023A2891343A381A6E71500039280
:101EB000CDE7059A216900F078F9A2894B4B1A40C9
:101EC00080231343A381059B2661F61826602E000C
:101ED0006761FF1AA7602F00AE4200D92E003200C2
:101EE0000399206800F030F9A3689B1BA360236866
:101EF0009B192360039B049ADB190393049BED1B3E
:101F00009B68DB1B9360A2D11EE73A00029800F0A9
:101F100055F9061ED7D121690298FFF72DFB8022C3
:101F2000A3899343A381B9E72369834202D36769F5
:101F3000AF4216D9AE4200D92E003200039900F00C
:101F400003F9A36822689B1B92193700A3602260E3
:101F5000002BCFD121000298FFF7B2F80028C9D09A
:101F60009FE7802328001B069D4200D320483900AC
:101F7000FEF72CFF3B00A66A4343039A216A0298AE
:101F8000B047071EB6DC8CE7019B1A005F68083279
:101F90000192002FF8D01B6803933A000A2103989E
:101FA00000F0F8F87E1C002800D1EFE6039B01301A
:101FB000C61AEBE6059A934208DCA56A039A216AE1
:101FC0000298A847051E00DDFDE66AE7059A039919
:101FD00000F0BAF8059AA36815009B1AA36023685D
:101FE0009B182360EFE6C04600FCFF7F7FFBFFFFEE
:101FF000FFFFFF7FF8B506000D001400002804D095
:10200000036A002B01D1FFF79BF9A369A360A389A1
:102010001B0702D52369002B09D12100300000F0F5
:1020200035F8002803D001256D422800F8BD23694A
:102030002068EFB2C01A6369EDB2834205DC21006B
:102040003000FFF73DF80028EDD1A3680130013BD7
:10205000A36023685A1C22601F706369834204D006
:10206000A389DB07E1D50A2DDFD121003000FFF77E
:1020700027F80028D9D0D6E710B5034B0A00010095
:102080001868FFF7B7FF10BD140000202D4B70B586
:10209000050018680C00002804D0036A002B01D149
:1020A000FFF74EF90C23E25E130723D4D30607D4BF
:1020B00009232B60402301201343A38140423AE0CF
:1020C000520713D5616B002908D02300443399428D
:1020D00002D02800FFF750FA002363632422A3896B
:1020E0009343A38100236360236923600823A289AB
:1020F0001343A3812369002B0BD1A0218022A38944
:10210000890092000B40934203D02100280000F088
:10211000AFF80C23E25E012113000B400A420BD002
:102120000023A36063695B42A361002023698342AB
:1021300001D11306BED470BD910700D46369A360BA
:10214000F3E7C0461400002010B5884206D80023EB
:102150009A4208D0CC5CC4540133F9E78B189842FA
:10216000F5D2013A00D210BD8B5C8354F9E7000030
:10217000002370B5064D040008002B60FEF78EFDAD
:10218000431C03D12B68002B00D0236070BDC046D8
:1021900014010020C9B28218904201D1002070477A
:1021A00003788B42FBD00130F6E7002310B59A424A
:1021B00000D110BDCC5CC4540133F8E7F7B506007C
:1021C0000C001500002905D11100FFF741FA0400A9
:1021D0002000FEBD002A03D1FFF7CEF90024F7E767
:1021E00000F0ACF80700854202D84308AB42EFD3B9
:1021F00029003000FFF72CFA01900028EED02A00C9
:10220000BD4200D93A0021000198FFF7CEFF21001E
:102210003000FFF7B1F9019CDAE7000070B50E005D
:102220001D000E23C95E140096B000290CDAB28995
:102230008023110019401A4214D18023DB000020B2
:102240002960236016B070BD6A4600F053F800287C
:10225000EDDBF02301991B021940044BC9184B42D6
:102260005941EAE700214023E9E7C04600E0FFFFCB
:10227000F0B502268B8905000C0085B0334207D0EB
:1022800023004733236023610123636105B0F0BD60
:1022900003AB02AAFFF7C2FF029F0190390028009A
:1022A000FFF7D6F9002808D10C22A35E9A05EDD4D9
:1022B000032293431E43A681E2E78023A289206084
:1022C0001343A381039B20616761002B0CD028007E
:1022D0000E23E15E00F020F8002805D00323A28938
:1022E0009A43023B1343A381A389019A1343A38119
:1022F000CCE70000002370B5064D04000800110073
:102300002B60FEF741FC431C03D12B68002B00D04F
:10231000236070BD14010020002370B5064D040039
:1023200008002B60FEF7A6FC431C03D12B68002B92
:1023300000D0236070BDC046140100200B1F1B6835
:10234000181F002B01DA0B58C018704703B47146F0
:10235000490840004900095E49008E4403BC7047AB
:10236000002243088B4274D303098B425FD3030AD4
:102370008B4244D3030B8B4228D3030C8B420DD3E7
:10238000FF22090212BA030C8B4202D31212090275
:1023900065D0030B8B4219D300E0090AC30B8B42B3
:1023A00001D3CB03C01A5241830B8B4201D38B0361
:1023B000C01A5241430B8B4201D34B03C01A524106
:1023C000030B8B4201D30B03C01A5241C30A8B4249
:1023D00001D3CB02C01A5241830A8B4201D38B0234
:1023E000C01A5241430A8B4201D34B02C01A5241D8
:1023F000030A8B4201D30B02C01A5241CDD2C3094A
:102400008B4201D3CB01C01A524183098B4201D3C5
:102410008B01C01A524143098B4201D34B01C01AB0
:10242000524103098B4201D30B01C01A5241C30828
:102430008B4201D3CB00C01A524183088B4201D397
:102440008B00C01A524143088B4201D34B00C01A83
:102450005241411A00D20146524110467047FFE7EF
:1024600001B50020FEF79CFD02BDC0460029F7D053
:1024700076E77047504234000D0A52657475726EEB
:1024800065642066726F6D206D61696E28292E204B
:102490002053797374656D2073746F702E00000083
:1024A000496E7465727275707420776974686F759F
:1024B000742068616E646C65722028495352292E1D
:1024C000202053797374656D2073746F702E000033
:1024D00048617264204661756C7420696E7465721F
:1024E000727570742E202053797374656D20737427
:1024F0006F702E00232D302B2000686C4C00656619
:102500006745464700303132333435363738394144
:10251000424344454600303132333435363738395A
:0825200061626364656600005E
:10252800646400000C0100200000000003000000AB
:1025380018010020180000200000000018010020E9
:1025480080010020E80100200000000000000000D9
:102558000000000000000000000000000000000073
:102568000000000000000000000000000000000063
:102578000000000000000000000000000000000053
:04258800000000004F
:04000005080000B936
:00000001FF
